{
  "contractName": "Avatars",
  "abi": [
    {
      "inputs": [
        {
          "internalType": "uint256",
          "name": "_avatarCreationFee",
          "type": "uint256"
        },
        {
          "internalType": "uint256",
          "name": "_attachmentCreationFee",
          "type": "uint256"
        }
      ],
      "stateMutability": "nonpayable",
      "type": "constructor"
    },
    {
      "anonymous": false,
      "inputs": [
        {
          "indexed": true,
          "internalType": "address",
          "name": "account",
          "type": "address"
        },
        {
          "indexed": true,
          "internalType": "address",
          "name": "operator",
          "type": "address"
        },
        {
          "indexed": false,
          "internalType": "bool",
          "name": "approved",
          "type": "bool"
        }
      ],
      "name": "ApprovalForAll",
      "type": "event"
    },
    {
      "anonymous": false,
      "inputs": [
        {
          "indexed": true,
          "internalType": "address",
          "name": "updater",
          "type": "address"
        },
        {
          "indexed": false,
          "internalType": "uint256",
          "name": "avatarId",
          "type": "uint256"
        },
        {
          "indexed": false,
          "internalType": "string",
          "name": "attachmentName",
          "type": "string"
        },
        {
          "indexed": false,
          "internalType": "uint256",
          "name": "attachmentId",
          "type": "uint256"
        }
      ],
      "name": "AttachmentAdded",
      "type": "event"
    },
    {
      "anonymous": false,
      "inputs": [
        {
          "indexed": true,
          "internalType": "address",
          "name": "updater",
          "type": "address"
        },
        {
          "indexed": false,
          "internalType": "uint256",
          "name": "avatarId",
          "type": "uint256"
        },
        {
          "indexed": false,
          "internalType": "string",
          "name": "attachmentName",
          "type": "string"
        },
        {
          "indexed": false,
          "internalType": "uint256",
          "name": "attachmentId",
          "type": "uint256"
        }
      ],
      "name": "AttachmentRemoved",
      "type": "event"
    },
    {
      "anonymous": false,
      "inputs": [
        {
          "indexed": true,
          "internalType": "address",
          "name": "previousOwner",
          "type": "address"
        },
        {
          "indexed": true,
          "internalType": "address",
          "name": "newOwner",
          "type": "address"
        }
      ],
      "name": "OwnershipTransferred",
      "type": "event"
    },
    {
      "anonymous": false,
      "inputs": [
        {
          "indexed": true,
          "internalType": "address",
          "name": "operator",
          "type": "address"
        },
        {
          "indexed": true,
          "internalType": "address",
          "name": "from",
          "type": "address"
        },
        {
          "indexed": true,
          "internalType": "address",
          "name": "to",
          "type": "address"
        },
        {
          "indexed": false,
          "internalType": "uint256[]",
          "name": "ids",
          "type": "uint256[]"
        },
        {
          "indexed": false,
          "internalType": "uint256[]",
          "name": "values",
          "type": "uint256[]"
        }
      ],
      "name": "TransferBatch",
      "type": "event"
    },
    {
      "anonymous": false,
      "inputs": [
        {
          "indexed": true,
          "internalType": "address",
          "name": "operator",
          "type": "address"
        },
        {
          "indexed": true,
          "internalType": "address",
          "name": "from",
          "type": "address"
        },
        {
          "indexed": true,
          "internalType": "address",
          "name": "to",
          "type": "address"
        },
        {
          "indexed": false,
          "internalType": "uint256",
          "name": "id",
          "type": "uint256"
        },
        {
          "indexed": false,
          "internalType": "uint256",
          "name": "value",
          "type": "uint256"
        }
      ],
      "name": "TransferSingle",
      "type": "event"
    },
    {
      "anonymous": false,
      "inputs": [
        {
          "indexed": false,
          "internalType": "string",
          "name": "value",
          "type": "string"
        },
        {
          "indexed": true,
          "internalType": "uint256",
          "name": "id",
          "type": "uint256"
        }
      ],
      "name": "URI",
      "type": "event"
    },
    {
      "inputs": [],
      "name": "TRANSFORMIUM",
      "outputs": [
        {
          "internalType": "uint256",
          "name": "",
          "type": "uint256"
        }
      ],
      "stateMutability": "view",
      "type": "function",
      "constant": true
    },
    {
      "inputs": [],
      "name": "attachmentCreationFee",
      "outputs": [
        {
          "internalType": "uint256",
          "name": "",
          "type": "uint256"
        }
      ],
      "stateMutability": "view",
      "type": "function",
      "constant": true
    },
    {
      "inputs": [
        {
          "internalType": "address",
          "name": "",
          "type": "address"
        },
        {
          "internalType": "uint256",
          "name": "",
          "type": "uint256"
        }
      ],
      "name": "attachmentInUse",
      "outputs": [
        {
          "internalType": "uint256",
          "name": "",
          "type": "uint256"
        }
      ],
      "stateMutability": "view",
      "type": "function",
      "constant": true
    },
    {
      "inputs": [
        {
          "internalType": "string",
          "name": "",
          "type": "string"
        }
      ],
      "name": "attachmentStartId",
      "outputs": [
        {
          "internalType": "uint256",
          "name": "",
          "type": "uint256"
        }
      ],
      "stateMutability": "view",
      "type": "function",
      "constant": true
    },
    {
      "inputs": [
        {
          "internalType": "uint256",
          "name": "",
          "type": "uint256"
        }
      ],
      "name": "attachments",
      "outputs": [
        {
          "internalType": "string",
          "name": "",
          "type": "string"
        }
      ],
      "stateMutability": "view",
      "type": "function",
      "constant": true
    },
    {
      "inputs": [],
      "name": "avatarCreationFee",
      "outputs": [
        {
          "internalType": "uint256",
          "name": "",
          "type": "uint256"
        }
      ],
      "stateMutability": "view",
      "type": "function",
      "constant": true
    },
    {
      "inputs": [
        {
          "internalType": "address",
          "name": "account",
          "type": "address"
        },
        {
          "internalType": "uint256",
          "name": "id",
          "type": "uint256"
        }
      ],
      "name": "balanceOf",
      "outputs": [
        {
          "internalType": "uint256",
          "name": "",
          "type": "uint256"
        }
      ],
      "stateMutability": "view",
      "type": "function",
      "constant": true
    },
    {
      "inputs": [
        {
          "internalType": "address[]",
          "name": "accounts",
          "type": "address[]"
        },
        {
          "internalType": "uint256[]",
          "name": "ids",
          "type": "uint256[]"
        }
      ],
      "name": "balanceOfBatch",
      "outputs": [
        {
          "internalType": "uint256[]",
          "name": "",
          "type": "uint256[]"
        }
      ],
      "stateMutability": "view",
      "type": "function",
      "constant": true
    },
    {
      "inputs": [
        {
          "internalType": "address",
          "name": "account",
          "type": "address"
        },
        {
          "internalType": "address",
          "name": "operator",
          "type": "address"
        }
      ],
      "name": "isApprovedForAll",
      "outputs": [
        {
          "internalType": "bool",
          "name": "",
          "type": "bool"
        }
      ],
      "stateMutability": "view",
      "type": "function",
      "constant": true
    },
    {
      "inputs": [],
      "name": "owner",
      "outputs": [
        {
          "internalType": "address",
          "name": "",
          "type": "address"
        }
      ],
      "stateMutability": "view",
      "type": "function",
      "constant": true
    },
    {
      "inputs": [],
      "name": "renounceOwnership",
      "outputs": [],
      "stateMutability": "nonpayable",
      "type": "function"
    },
    {
      "inputs": [
        {
          "internalType": "bytes32",
          "name": "",
          "type": "bytes32"
        }
      ],
      "name": "requestToOwner",
      "outputs": [
        {
          "internalType": "address",
          "name": "",
          "type": "address"
        }
      ],
      "stateMutability": "view",
      "type": "function",
      "constant": true
    },
    {
      "inputs": [
        {
          "internalType": "bytes32",
          "name": "",
          "type": "bytes32"
        }
      ],
      "name": "requestToToken",
      "outputs": [
        {
          "internalType": "uint256",
          "name": "",
          "type": "uint256"
        }
      ],
      "stateMutability": "view",
      "type": "function",
      "constant": true
    },
    {
      "inputs": [
        {
          "internalType": "address",
          "name": "operator",
          "type": "address"
        },
        {
          "internalType": "bool",
          "name": "approved",
          "type": "bool"
        }
      ],
      "name": "setApprovalForAll",
      "outputs": [],
      "stateMutability": "nonpayable",
      "type": "function"
    },
    {
      "inputs": [
        {
          "internalType": "bytes4",
          "name": "interfaceId",
          "type": "bytes4"
        }
      ],
      "name": "supportsInterface",
      "outputs": [
        {
          "internalType": "bool",
          "name": "",
          "type": "bool"
        }
      ],
      "stateMutability": "view",
      "type": "function",
      "constant": true
    },
    {
      "inputs": [
        {
          "internalType": "uint256",
          "name": "",
          "type": "uint256"
        }
      ],
      "name": "totalAttachments",
      "outputs": [
        {
          "internalType": "uint256",
          "name": "",
          "type": "uint256"
        }
      ],
      "stateMutability": "view",
      "type": "function",
      "constant": true
    },
    {
      "inputs": [],
      "name": "totalTokens",
      "outputs": [
        {
          "internalType": "uint256",
          "name": "",
          "type": "uint256"
        }
      ],
      "stateMutability": "view",
      "type": "function",
      "constant": true
    },
    {
      "inputs": [
        {
          "internalType": "address",
          "name": "newOwner",
          "type": "address"
        }
      ],
      "name": "transferOwnership",
      "outputs": [],
      "stateMutability": "nonpayable",
      "type": "function"
    },
    {
      "inputs": [
        {
          "internalType": "uint256",
          "name": "",
          "type": "uint256"
        }
      ],
      "name": "uri",
      "outputs": [
        {
          "internalType": "string",
          "name": "",
          "type": "string"
        }
      ],
      "stateMutability": "view",
      "type": "function",
      "constant": true
    },
    {
      "inputs": [
        {
          "internalType": "uint256",
          "name": "fee",
          "type": "uint256"
        }
      ],
      "name": "setAvatarCreationFee",
      "outputs": [],
      "stateMutability": "nonpayable",
      "type": "function"
    },
    {
      "inputs": [
        {
          "internalType": "uint256",
          "name": "fee",
          "type": "uint256"
        }
      ],
      "name": "setAttachmentCreationFee",
      "outputs": [],
      "stateMutability": "nonpayable",
      "type": "function"
    },
    {
      "inputs": [],
      "name": "createAvatar",
      "outputs": [],
      "stateMutability": "nonpayable",
      "type": "function"
    },
    {
      "inputs": [
        {
          "internalType": "uint256",
          "name": "avatarId",
          "type": "uint256"
        },
        {
          "internalType": "string",
          "name": "attachmentName",
          "type": "string"
        },
        {
          "internalType": "uint256",
          "name": "attachmentId",
          "type": "uint256"
        }
      ],
      "name": "addAttachment",
      "outputs": [],
      "stateMutability": "nonpayable",
      "type": "function"
    },
    {
      "inputs": [
        {
          "internalType": "uint256",
          "name": "avatarId",
          "type": "uint256"
        },
        {
          "internalType": "string",
          "name": "attachmentName",
          "type": "string"
        },
        {
          "internalType": "uint256",
          "name": "attachmentId",
          "type": "uint256"
        }
      ],
      "name": "removeAttachment",
      "outputs": [],
      "stateMutability": "nonpayable",
      "type": "function"
    },
    {
      "inputs": [
        {
          "internalType": "string",
          "name": "attachmentName",
          "type": "string"
        },
        {
          "internalType": "uint256",
          "name": "attachmentId",
          "type": "uint256"
        }
      ],
      "name": "buyAttachment",
      "outputs": [],
      "stateMutability": "nonpayable",
      "type": "function"
    },
    {
      "inputs": [
        {
          "internalType": "string",
          "name": "attachmentName",
          "type": "string"
        },
        {
          "internalType": "uint256",
          "name": "attachmentId",
          "type": "uint256"
        }
      ],
      "name": "sellAttachment",
      "outputs": [],
      "stateMutability": "nonpayable",
      "type": "function"
    },
    {
      "inputs": [
        {
          "internalType": "address",
          "name": "from",
          "type": "address"
        },
        {
          "internalType": "address",
          "name": "to",
          "type": "address"
        },
        {
          "internalType": "uint256",
          "name": "id",
          "type": "uint256"
        },
        {
          "internalType": "uint256",
          "name": "amount",
          "type": "uint256"
        },
        {
          "internalType": "bytes",
          "name": "data",
          "type": "bytes"
        }
      ],
      "name": "safeTransferFrom",
      "outputs": [],
      "stateMutability": "nonpayable",
      "type": "function"
    },
    {
      "inputs": [
        {
          "internalType": "address",
          "name": "from",
          "type": "address"
        },
        {
          "internalType": "address",
          "name": "to",
          "type": "address"
        },
        {
          "internalType": "uint256[]",
          "name": "ids",
          "type": "uint256[]"
        },
        {
          "internalType": "uint256[]",
          "name": "amounts",
          "type": "uint256[]"
        },
        {
          "internalType": "bytes",
          "name": "data",
          "type": "bytes"
        }
      ],
      "name": "safeBatchTransferFrom",
      "outputs": [],
      "stateMutability": "nonpayable",
      "type": "function"
    }
  ],
  "bytecode": "0x6080604052604051806101c001604052806040518060400160405280600b81526020017f6163636573736f7269657300000000000000000000000000000000000000000081525081526020016040518060400160405280601081526020017f6163636573736f72696573436f6c6f720000000000000000000000000000000081525081526020016040518060400160405280600e81526020017f636c6f746865477261706869637300000000000000000000000000000000000081525081526020016040518060400160405280600781526020017f636c6f746865730000000000000000000000000000000000000000000000000081525081526020016040518060400160405280600c81526020017f636c6f74686573436f6c6f72000000000000000000000000000000000000000081525081526020016040518060400160405280600781526020017f65796562726f770000000000000000000000000000000000000000000000000081525081526020016040518060400160405280600481526020017f657965730000000000000000000000000000000000000000000000000000000081525081526020016040518060400160405280600a81526020017f66616369616c486169720000000000000000000000000000000000000000000081525081526020016040518060400160405280600f81526020017f66616369616c48616972436f6c6f72000000000000000000000000000000000081525081526020016040518060400160405280600981526020017f68616972436f6c6f72000000000000000000000000000000000000000000000081525081526020016040518060400160405280600881526020017f686174436f6c6f7200000000000000000000000000000000000000000000000081525081526020016040518060400160405280600581526020017f6d6f75746800000000000000000000000000000000000000000000000000000081525081526020016040518060400160405280600481526020017f736b696e0000000000000000000000000000000000000000000000000000000081525081526020016040518060400160405280600381526020017f746f700000000000000000000000000000000000000000000000000000000000815250815250600790600e6200035a92919062000bc4565b50604051806101c00160405280600660ff168152602001601260ff168152602001600a60ff168152602001600c60ff168152602001601260ff168152602001601260ff168152602001600e60ff168152602001600a60ff168152602001600c60ff168152602001600c60ff168152602001601260ff168152602001600c60ff168152602001600760ff168152602001602560ff16815250600890600e6200040392919062000c2b565b5060006009556001600a553480156200041b57600080fd5b506040516200545738038062005457833981810160405281019062000441919062000dfa565b604051806020016040528060008152506200046281620006ed60201b60201c565b506000620004756200070960201b60201c565b905080600360006101000a81548173ffffffffffffffffffffffffffffffffffffffff021916908373ffffffffffffffffffffffffffffffffffffffff1602179055508073ffffffffffffffffffffffffffffffffffffffff16600073ffffffffffffffffffffffffffffffffffffffff167f8be0079c531659141344cd1fd0a4f28419497f9722a3daafe3b4186f6b6457e060405160405180910390a350816004819055508060058190555060005b600780549050811015620006ab5760006007828154811062000570577f4e487b7100000000000000000000000000000000000000000000000000000000600052603260045260246000fd5b906000526020600020018054620005879062001209565b80601f0160208091040260200160405190810160405280929190818152602001828054620005b59062001209565b8015620006065780601f10620005da5761010080835404028352916020019162000606565b820191906000526020600020905b815481529060010190602001808311620005e857829003601f168201915b50505050509050600a54600d8260405162000622919062000f8b565b908152602001604051809103902081905550600882815481106200066f577f4e487b7100000000000000000000000000000000000000000000000000000000600052603260045260246000fd5b9060005260206000200154600a60008282546200068d91906200110c565b92505081905550508080620006a29062001275565b91505062000525565b50620006e5620006c06200070960201b60201c565b60095464e8d4a51000604051806020016040528060008152506200071160201b60201c565b505062001556565b80600290805190602001906200070592919062000c82565b5050565b600033905090565b600073ffffffffffffffffffffffffffffffffffffffff168473ffffffffffffffffffffffffffffffffffffffff16141562000784576040517f08c379a00000000000000000000000000000000000000000000000000000000081526004016200077b9062001070565b60405180910390fd5b6000620007966200070960201b60201c565b9050620007cf81600087620007b188620008d660201b60201c565b620007c288620008d660201b60201c565b876200099f60201b60201c565b8260008086815260200190815260200160002060008773ffffffffffffffffffffffffffffffffffffffff1673ffffffffffffffffffffffffffffffffffffffff16815260200190815260200160002060008282546200083091906200110c565b925050819055508473ffffffffffffffffffffffffffffffffffffffff16600073ffffffffffffffffffffffffffffffffffffffff168273ffffffffffffffffffffffffffffffffffffffff167fc3d58168c5ae7397731d063d5bbf3d657854427343f4c083240f7aacaa2d0f628787604051620008b092919062001092565b60405180910390a4620008cf81600087878787620009a760201b60201c565b5050505050565b60606000600167ffffffffffffffff8111156200091c577f4e487b7100000000000000000000000000000000000000000000000000000000600052604160045260246000fd5b6040519080825280602002602001820160405280156200094b5781602001602082028036833780820191505090505b50905082816000815181106200098a577f4e487b7100000000000000000000000000000000000000000000000000000000600052603260045260246000fd5b60200260200101818152505080915050919050565b505050505050565b620009d38473ffffffffffffffffffffffffffffffffffffffff1662000bb160201b620016c31760201c565b1562000ba9578373ffffffffffffffffffffffffffffffffffffffff1663f23a6e6187878686866040518663ffffffff1660e01b815260040162000a1c95949392919062000fa4565b602060405180830381600087803b15801562000a3757600080fd5b505af192505050801562000a6b57506040513d601f19601f8201168201806040525081019062000a68919062000dce565b60015b62000b1d5762000a7a62001350565b806308c379a0141562000ade575062000a9262001480565b8062000a9f575062000ae0565b806040517f08c379a000000000000000000000000000000000000000000000000000000000815260040162000ad5919062001008565b60405180910390fd5b505b6040517f08c379a000000000000000000000000000000000000000000000000000000000815260040162000b14906200102c565b60405180910390fd5b63f23a6e6160e01b7bffffffffffffffffffffffffffffffffffffffffffffffffffffffff1916817bffffffffffffffffffffffffffffffffffffffffffffffffffffffff19161462000ba7576040517f08c379a000000000000000000000000000000000000000000000000000000000815260040162000b9e906200104e565b60405180910390fd5b505b505050505050565b600080823b905060008111915050919050565b82805482825590600052602060002090810192821562000c18579160200282015b8281111562000c1757825182908051906020019062000c0692919062000c82565b509160200191906001019062000be5565b5b50905062000c27919062000d13565b5090565b82805482825590600052602060002090810192821562000c6f579160200282015b8281111562000c6e578251829060ff1690559160200191906001019062000c4c565b5b50905062000c7e919062000d3b565b5090565b82805462000c909062001209565b90600052602060002090601f01602090048101928262000cb4576000855562000d00565b82601f1062000ccf57805160ff191683800117855562000d00565b8280016001018555821562000d00579182015b8281111562000cff57825182559160200191906001019062000ce2565b5b50905062000d0f919062000d3b565b5090565b5b8082111562000d37576000818162000d2d919062000d5a565b5060010162000d14565b5090565b5b8082111562000d5657600081600090555060010162000d3c565b5090565b50805462000d689062001209565b6000825580601f1062000d7c575062000d9d565b601f01602090049060005260206000209081019062000d9c919062000d3b565b5b50565b60008151905062000db18162001522565b92915050565b60008151905062000dc8816200153c565b92915050565b60006020828403121562000de157600080fd5b600062000df18482850162000da0565b91505092915050565b6000806040838503121562000e0e57600080fd5b600062000e1e8582860162000db7565b925050602062000e318582860162000db7565b9150509250929050565b62000e468162001169565b82525050565b600062000e5982620010c9565b62000e658185620010df565b935062000e77818560208601620011d3565b62000e828162001375565b840191505092915050565b600062000e9a82620010d4565b62000ea68185620010f0565b935062000eb8818560208601620011d3565b62000ec38162001375565b840191505092915050565b600062000edb82620010d4565b62000ee7818562001101565b935062000ef9818560208601620011d3565b80840191505092915050565b600062000f14603483620010f0565b915062000f218262001393565b604082019050919050565b600062000f3b602883620010f0565b915062000f4882620013e2565b604082019050919050565b600062000f62602183620010f0565b915062000f6f8262001431565b604082019050919050565b62000f8581620011c9565b82525050565b600062000f99828462000ece565b915081905092915050565b600060a08201905062000fbb600083018862000e3b565b62000fca602083018762000e3b565b62000fd9604083018662000f7a565b62000fe8606083018562000f7a565b818103608083015262000ffc818462000e4c565b90509695505050505050565b6000602082019050818103600083015262001024818462000e8d565b905092915050565b60006020820190508181036000830152620010478162000f05565b9050919050565b60006020820190508181036000830152620010698162000f2c565b9050919050565b600060208201905081810360008301526200108b8162000f53565b9050919050565b6000604082019050620010a9600083018562000f7a565b620010b8602083018462000f7a565b9392505050565b6000604051905090565b600081519050919050565b600081519050919050565b600082825260208201905092915050565b600082825260208201905092915050565b600081905092915050565b60006200111982620011c9565b91506200112683620011c9565b9250827fffffffffffffffffffffffffffffffffffffffffffffffffffffffffffffffff038211156200115e576200115d620012c3565b5b828201905092915050565b60006200117682620011a9565b9050919050565b60007fffffffff0000000000000000000000000000000000000000000000000000000082169050919050565b600073ffffffffffffffffffffffffffffffffffffffff82169050919050565b6000819050919050565b60005b83811015620011f3578082015181840152602081019050620011d6565b8381111562001203576000848401525b50505050565b600060028204905060018216806200122257607f821691505b60208210811415620012395762001238620012f2565b5b50919050565b6200124a8262001375565b810181811067ffffffffffffffff821117156200126c576200126b62001321565b5b80604052505050565b60006200128282620011c9565b91507fffffffffffffffffffffffffffffffffffffffffffffffffffffffffffffffff821415620012b857620012b7620012c3565b5b600182019050919050565b7f4e487b7100000000000000000000000000000000000000000000000000000000600052601160045260246000fd5b7f4e487b7100000000000000000000000000000000000000000000000000000000600052602260045260246000fd5b7f4e487b7100000000000000000000000000000000000000000000000000000000600052604160045260246000fd5b600060033d1115620013725760046000803e6200136f60005162001386565b90505b90565b6000601f19601f8301169050919050565b60008160e01c9050919050565b7f455243313135353a207472616e7366657220746f206e6f6e204552433131353560008201527f526563656976657220696d706c656d656e746572000000000000000000000000602082015250565b7f455243313135353a204552433131353552656365697665722072656a6563746560008201527f6420746f6b656e73000000000000000000000000000000000000000000000000602082015250565b7f455243313135353a206d696e7420746f20746865207a65726f2061646472657360008201527f7300000000000000000000000000000000000000000000000000000000000000602082015250565b600060443d101562001492576200151f565b6200149c620010bf565b60043d036004823e80513d602482011167ffffffffffffffff82111715620014c65750506200151f565b808201805167ffffffffffffffff811115620014e657505050506200151f565b80602083010160043d038501811115620015055750505050506200151f565b62001516826020018501866200123f565b82955050505050505b90565b6200152d816200117d565b81146200153957600080fd5b50565b6200154781620011c9565b81146200155357600080fd5b50565b613ef180620015666000396000f3fe608060405234801561001057600080fd5b50600436106101c35760003560e01c8063839d6639116100f9578063d7c2357111610097578063e985e9c511610071578063e985e9c514610516578063f15e99c314610546578063f242432a14610562578063f2fde38b1461057e576101c3565b8063d7c235711461049a578063df420c89146104b6578063e0a5f5ea146104e6576101c3565b8063968aff5f116100d3578063968aff5f14610412578063a22cb46514610442578063aec3c8ee1461045e578063b652a2761461047c576101c3565b8063839d6639146103ba5780638bd89ce8146103d85780638da5cb5b146103f4576101c3565b80632eb2c2d6116101665780635e5cd13a116101405780635e5cd13a1461035857806362ff09d614610362578063715018a6146103925780637e1c0c091461039c576101c3565b80632eb2c2d6146102f0578063312321bf1461030c5780634e1273f414610328576101c3565b80630ba5973f116101a25780630ba5973f146102445780630d6a2033146102605780630e89341c146102905780631a5078be146102c0576101c3565b8062fdd58e146101c857806301ffc9a7146101f85780630905311814610228575b600080fd5b6101e260048036038101906101dd9190612b17565b61059a565b6040516101ef919061346e565b60405180910390f35b610212600480360381019061020d9190612be8565b610663565b60405161021f9190613231565b60405180910390f35b610242600480360381019061023d9190612ccf565b610745565b005b61025e60048036038101906102599190612c7b565b6107cb565b005b61027a60048036038101906102759190612ccf565b610837565b604051610287919061324c565b60405180910390f35b6102aa60048036038101906102a59190612ccf565b6108e3565b6040516102b7919061324c565b60405180910390f35b6102da60048036038101906102d59190612b17565b610977565b6040516102e7919061346e565b60405180910390f35b61030a6004803603810190610305919061298d565b61099c565b005b61032660048036038101906103219190612cf8565b610b35565b005b610342600480360381019061033d9190612b53565b610c31565b60405161034f91906131d8565b60405180910390f35b610360610de2565b005b61037c60048036038101906103779190612bbf565b610e3d565b604051610389919061346e565b60405180910390f35b61039a610e55565b005b6103a4610f92565b6040516103b1919061346e565b60405180910390f35b6103c2610f98565b6040516103cf919061346e565b60405180910390f35b6103f260048036038101906103ed9190612cf8565b610f9e565b005b6103fc61109a565b60405161040991906130fb565b60405180910390f35b61042c60048036038101906104279190612bbf565b6110c4565b60405161043991906130fb565b60405180910390f35b61045c60048036038101906104579190612adb565b6110f7565b005b610466611278565b604051610473919061346e565b60405180910390f35b61048461127e565b604051610491919061346e565b60405180910390f35b6104b460048036038101906104af9190612ccf565b611284565b005b6104d060048036038101906104cb9190612ccf565b61130a565b6040516104dd919061346e565b60405180910390f35b61050060048036038101906104fb9190612c3a565b61132e565b60405161050d919061346e565b60405180910390f35b610530600480360381019061052b9190612951565b61135c565b60405161053d9190613231565b60405180910390f35b610560600480360381019061055b9190612c7b565b6113f0565b005b61057c60048036038101906105779190612a4c565b61145c565b005b61059860048036038101906105939190612928565b611517565b005b60008073ffffffffffffffffffffffffffffffffffffffff168373ffffffffffffffffffffffffffffffffffffffff16141561060b576040517f08c379a0000000000000000000000000000000000000000000000000000000008152600401610602906132ae565b60405180910390fd5b60008083815260200190815260200160002060008473ffffffffffffffffffffffffffffffffffffffff1673ffffffffffffffffffffffffffffffffffffffff16815260200190815260200160002054905092915050565b60007fd9b67a26000000000000000000000000000000000000000000000000000000007bffffffffffffffffffffffffffffffffffffffffffffffffffffffff1916827bffffffffffffffffffffffffffffffffffffffffffffffffffffffff1916148061072e57507f0e89341c000000000000000000000000000000000000000000000000000000007bffffffffffffffffffffffffffffffffffffffffffffffffffffffff1916827bffffffffffffffffffffffffffffffffffffffffffffffffffffffff1916145b8061073e575061073d826116d6565b5b9050919050565b61074d611740565b73ffffffffffffffffffffffffffffffffffffffff1661076b61109a565b73ffffffffffffffffffffffffffffffffffffffff16146107c1576040517f08c379a00000000000000000000000000000000000000000000000000000000081526004016107b8906133ce565b60405180910390fd5b8060048190555050565b6107f16107d6611740565b60095460055460405180602001604052806000815250611748565b600081600d8460405161080491906130e4565b90815260200160405180910390205461081d919061364b565b905061083261082a611740565b8260016118de565b505050565b6007818154811061084757600080fd5b90600052602060002001600091509050805461086290613795565b80601f016020809104026020016040519081016040528092919081815260200182805461088e90613795565b80156108db5780601f106108b0576101008083540402835291602001916108db565b820191906000526020600020905b8154815290600101906020018083116108be57829003601f168201915b505050505081565b6060600280546108f290613795565b80601f016020809104026020016040519081016040528092919081815260200182805461091e90613795565b801561096b5780601f106109405761010080835404028352916020019161096b565b820191906000526020600020905b81548152906001019060200180831161094e57829003601f168201915b50505050509050919050565b6006602052816000526040600020602052806000526040600020600091509150505481565b60005b8351811015610b20578281815181106109e1577f4e487b7100000000000000000000000000000000000000000000000000000000600052603260045260246000fd5b6020026020010151600660008873ffffffffffffffffffffffffffffffffffffffff1673ffffffffffffffffffffffffffffffffffffffff1681526020019081526020016000206000868481518110610a63577f4e487b7100000000000000000000000000000000000000000000000000000000600052603260045260246000fd5b6020026020010151815260200190815260200160002054610ac488878581518110610ab7577f4e487b7100000000000000000000000000000000000000000000000000000000600052603260045260246000fd5b602002602001015161059a565b610ace91906136a1565b1015610b0f576040517f08c379a0000000000000000000000000000000000000000000000000000000008152600401610b069061332e565b60405180910390fd5b80610b19906137f8565b905061099f565b50610b2e8585858585611b04565b5050505050565b600081600d84604051610b4891906130e4565b908152602001604051809103902054610b61919061364b565b9050600160066000610b71611740565b73ffffffffffffffffffffffffffffffffffffffff1673ffffffffffffffffffffffffffffffffffffffff16815260200190815260200160002060008381526020019081526020016000206000828254610bcb919061364b565b92505081905550610bda611740565b73ffffffffffffffffffffffffffffffffffffffff167fd095d6269e59f85ad800fbbe0e4f9bcaf64602fe0face60138f74f3cacdf7de9858584604051610c2393929190613489565b60405180910390a250505050565b60608151835114610c77576040517f08c379a0000000000000000000000000000000000000000000000000000000008152600401610c6e9061340e565b60405180910390fd5b6000835167ffffffffffffffff811115610cba577f4e487b7100000000000000000000000000000000000000000000000000000000600052604160045260246000fd5b604051908082528060200260200182016040528015610ce85781602001602082028036833780820191505090505b50905060005b8451811015610dd757610d81858281518110610d33577f4e487b7100000000000000000000000000000000000000000000000000000000600052603260045260246000fd5b6020026020010151858381518110610d74577f4e487b7100000000000000000000000000000000000000000000000000000000600052603260045260246000fd5b602002602001015161059a565b828281518110610dba577f4e487b7100000000000000000000000000000000000000000000000000000000600052603260045260246000fd5b60200260200101818152505080610dd0906137f8565b9050610cee565b508091505092915050565b6000600a549050610dff610df4611740565b6009546004546118de565b610e22610e0a611740565b82600160405180602001604052806000815250611748565b600a6000815480929190610e35906137f8565b919050555050565b600b6020528060005260406000206000915090505481565b610e5d611740565b73ffffffffffffffffffffffffffffffffffffffff16610e7b61109a565b73ffffffffffffffffffffffffffffffffffffffff1614610ed1576040517f08c379a0000000000000000000000000000000000000000000000000000000008152600401610ec8906133ce565b60405180910390fd5b600073ffffffffffffffffffffffffffffffffffffffff16600360009054906101000a900473ffffffffffffffffffffffffffffffffffffffff1673ffffffffffffffffffffffffffffffffffffffff167f8be0079c531659141344cd1fd0a4f28419497f9722a3daafe3b4186f6b6457e060405160405180910390a36000600360006101000a81548173ffffffffffffffffffffffffffffffffffffffff021916908373ffffffffffffffffffffffffffffffffffffffff160217905550565b600a5481565b60095481565b600081600d84604051610fb191906130e4565b908152602001604051809103902054610fca919061364b565b9050600160066000610fda611740565b73ffffffffffffffffffffffffffffffffffffffff1673ffffffffffffffffffffffffffffffffffffffff1681526020019081526020016000206000838152602001908152602001600020600082825461103491906136a1565b92505081905550611043611740565b73ffffffffffffffffffffffffffffffffffffffff167f2d36578065867984e901072433ac52b32c1afe6b3ea07ed1a8f07c921ed63c1b85858460405161108c93929190613489565b60405180910390a250505050565b6000600360009054906101000a900473ffffffffffffffffffffffffffffffffffffffff16905090565b600c6020528060005260406000206000915054906101000a900473ffffffffffffffffffffffffffffffffffffffff1681565b8173ffffffffffffffffffffffffffffffffffffffff16611116611740565b73ffffffffffffffffffffffffffffffffffffffff16141561116d576040517f08c379a0000000000000000000000000000000000000000000000000000000008152600401611164906133ee565b60405180910390fd5b806001600061117a611740565b73ffffffffffffffffffffffffffffffffffffffff1673ffffffffffffffffffffffffffffffffffffffff16815260200190815260200160002060008473ffffffffffffffffffffffffffffffffffffffff1673ffffffffffffffffffffffffffffffffffffffff16815260200190815260200160002060006101000a81548160ff0219169083151502179055508173ffffffffffffffffffffffffffffffffffffffff16611227611740565b73ffffffffffffffffffffffffffffffffffffffff167f17307eab39ab6107e8899845ad3d59bd9653f200f220920489ca2b5937696c318360405161126c9190613231565b60405180910390a35050565b60045481565b60055481565b61128c611740565b73ffffffffffffffffffffffffffffffffffffffff166112aa61109a565b73ffffffffffffffffffffffffffffffffffffffff1614611300576040517f08c379a00000000000000000000000000000000000000000000000000000000081526004016112f7906133ce565b60405180910390fd5b8060058190555050565b6008818154811061131a57600080fd5b906000526020600020016000915090505481565b600d818051602081018201805184825260208301602085012081835280955050505050506000915090505481565b6000600160008473ffffffffffffffffffffffffffffffffffffffff1673ffffffffffffffffffffffffffffffffffffffff16815260200190815260200160002060008373ffffffffffffffffffffffffffffffffffffffff1673ffffffffffffffffffffffffffffffffffffffff16815260200190815260200160002060009054906101000a900460ff16905092915050565b6114066113fb611740565b6009546005546118de565b600081600d8460405161141991906130e4565b908152602001604051809103902054611432919061364b565b905061145761143f611740565b82600160405180602001604052806000815250611748565b505050565b81600660008773ffffffffffffffffffffffffffffffffffffffff1673ffffffffffffffffffffffffffffffffffffffff1681526020019081526020016000206000858152602001908152602001600020546114b8878661059a565b6114c291906136a1565b1015611503576040517f08c379a00000000000000000000000000000000000000000000000000000000081526004016114fa9061332e565b60405180910390fd5b6115108585858585611efa565b5050505050565b61151f611740565b73ffffffffffffffffffffffffffffffffffffffff1661153d61109a565b73ffffffffffffffffffffffffffffffffffffffff1614611593576040517f08c379a000000000000000000000000000000000000000000000000000000000815260040161158a906133ce565b60405180910390fd5b600073ffffffffffffffffffffffffffffffffffffffff168173ffffffffffffffffffffffffffffffffffffffff161415611603576040517f08c379a00000000000000000000000000000000000000000000000000000000081526004016115fa906132ce565b60405180910390fd5b8073ffffffffffffffffffffffffffffffffffffffff16600360009054906101000a900473ffffffffffffffffffffffffffffffffffffffff1673ffffffffffffffffffffffffffffffffffffffff167f8be0079c531659141344cd1fd0a4f28419497f9722a3daafe3b4186f6b6457e060405160405180910390a380600360006101000a81548173ffffffffffffffffffffffffffffffffffffffff021916908373ffffffffffffffffffffffffffffffffffffffff16021790555050565b600080823b905060008111915050919050565b60007f01ffc9a7000000000000000000000000000000000000000000000000000000007bffffffffffffffffffffffffffffffffffffffffffffffffffffffff1916827bffffffffffffffffffffffffffffffffffffffffffffffffffffffff1916149050919050565b600033905090565b600073ffffffffffffffffffffffffffffffffffffffff168473ffffffffffffffffffffffffffffffffffffffff1614156117b8576040517f08c379a00000000000000000000000000000000000000000000000000000000081526004016117af9061344e565b60405180910390fd5b60006117c2611740565b90506117e3816000876117d488612212565b6117dd88612212565b876122d8565b8260008086815260200190815260200160002060008773ffffffffffffffffffffffffffffffffffffffff1673ffffffffffffffffffffffffffffffffffffffff1681526020019081526020016000206000828254611842919061364b565b925050819055508473ffffffffffffffffffffffffffffffffffffffff16600073ffffffffffffffffffffffffffffffffffffffff168273ffffffffffffffffffffffffffffffffffffffff167fc3d58168c5ae7397731d063d5bbf3d657854427343f4c083240f7aacaa2d0f6287876040516118c09291906134c7565b60405180910390a46118d7816000878787876122e0565b5050505050565b600073ffffffffffffffffffffffffffffffffffffffff168373ffffffffffffffffffffffffffffffffffffffff16141561194e576040517f08c379a00000000000000000000000000000000000000000000000000000000081526004016119459061338e565b60405180910390fd5b6000611958611740565b90506119888185600061196a87612212565b61197387612212565b604051806020016040528060008152506122d8565b600080600085815260200190815260200160002060008673ffffffffffffffffffffffffffffffffffffffff1673ffffffffffffffffffffffffffffffffffffffff16815260200190815260200160002054905082811015611a1f576040517f08c379a0000000000000000000000000000000000000000000000000000000008152600401611a16906132ee565b60405180910390fd5b8281611a2b91906136a1565b60008086815260200190815260200160002060008773ffffffffffffffffffffffffffffffffffffffff1673ffffffffffffffffffffffffffffffffffffffff16815260200190815260200160002081905550600073ffffffffffffffffffffffffffffffffffffffff168573ffffffffffffffffffffffffffffffffffffffff168373ffffffffffffffffffffffffffffffffffffffff167fc3d58168c5ae7397731d063d5bbf3d657854427343f4c083240f7aacaa2d0f628787604051611af59291906134c7565b60405180910390a45050505050565b8151835114611b48576040517f08c379a0000000000000000000000000000000000000000000000000000000008152600401611b3f9061342e565b60405180910390fd5b600073ffffffffffffffffffffffffffffffffffffffff168473ffffffffffffffffffffffffffffffffffffffff161415611bb8576040517f08c379a0000000000000000000000000000000000000000000000000000000008152600401611baf9061334e565b60405180910390fd5b611bc0611740565b73ffffffffffffffffffffffffffffffffffffffff168573ffffffffffffffffffffffffffffffffffffffff161480611c065750611c0585611c00611740565b61135c565b5b611c45576040517f08c379a0000000000000000000000000000000000000000000000000000000008152600401611c3c9061336e565b60405180910390fd5b6000611c4f611740565b9050611c5f8187878787876122d8565b60005b8451811015611e65576000858281518110611ca6577f4e487b7100000000000000000000000000000000000000000000000000000000600052603260045260246000fd5b602002602001015190506000858381518110611ceb577f4e487b7100000000000000000000000000000000000000000000000000000000600052603260045260246000fd5b60200260200101519050600080600084815260200190815260200160002060008b73ffffffffffffffffffffffffffffffffffffffff1673ffffffffffffffffffffffffffffffffffffffff16815260200190815260200160002054905081811015611d8c576040517f08c379a0000000000000000000000000000000000000000000000000000000008152600401611d83906133ae565b60405180910390fd5b8181611d9891906136a1565b60008085815260200190815260200160002060008c73ffffffffffffffffffffffffffffffffffffffff1673ffffffffffffffffffffffffffffffffffffffff168152602001908152602001600020819055508160008085815260200190815260200160002060008b73ffffffffffffffffffffffffffffffffffffffff1673ffffffffffffffffffffffffffffffffffffffff1681526020019081526020016000206000828254611e4a919061364b565b9250508190555050505080611e5e906137f8565b9050611c62565b508473ffffffffffffffffffffffffffffffffffffffff168673ffffffffffffffffffffffffffffffffffffffff168273ffffffffffffffffffffffffffffffffffffffff167f4a39dc06d4c0dbc64b70af90fd698a233a518aa5d07e595d983b8c0526c8f7fb8787604051611edc9291906131fa565b60405180910390a4611ef28187878787876124c7565b505050505050565b600073ffffffffffffffffffffffffffffffffffffffff168473ffffffffffffffffffffffffffffffffffffffff161415611f6a576040517f08c379a0000000000000000000000000000000000000000000000000000000008152600401611f619061334e565b60405180910390fd5b611f72611740565b73ffffffffffffffffffffffffffffffffffffffff168573ffffffffffffffffffffffffffffffffffffffff161480611fb85750611fb785611fb2611740565b61135c565b5b611ff7576040517f08c379a0000000000000000000000000000000000000000000000000000000008152600401611fee9061330e565b60405180910390fd5b6000612001611740565b905061202181878761201288612212565b61201b88612212565b876122d8565b600080600086815260200190815260200160002060008873ffffffffffffffffffffffffffffffffffffffff1673ffffffffffffffffffffffffffffffffffffffff168152602001908152602001600020549050838110156120b8576040517f08c379a00000000000000000000000000000000000000000000000000000000081526004016120af906133ae565b60405180910390fd5b83816120c491906136a1565b60008087815260200190815260200160002060008973ffffffffffffffffffffffffffffffffffffffff1673ffffffffffffffffffffffffffffffffffffffff168152602001908152602001600020819055508360008087815260200190815260200160002060008873ffffffffffffffffffffffffffffffffffffffff1673ffffffffffffffffffffffffffffffffffffffff1681526020019081526020016000206000828254612176919061364b565b925050819055508573ffffffffffffffffffffffffffffffffffffffff168773ffffffffffffffffffffffffffffffffffffffff168373ffffffffffffffffffffffffffffffffffffffff167fc3d58168c5ae7397731d063d5bbf3d657854427343f4c083240f7aacaa2d0f6288886040516121f39291906134c7565b60405180910390a46122098288888888886122e0565b50505050505050565b60606000600167ffffffffffffffff811115612257577f4e487b7100000000000000000000000000000000000000000000000000000000600052604160045260246000fd5b6040519080825280602002602001820160405280156122855781602001602082028036833780820191505090505b50905082816000815181106122c3577f4e487b7100000000000000000000000000000000000000000000000000000000600052603260045260246000fd5b60200260200101818152505080915050919050565b505050505050565b6122ff8473ffffffffffffffffffffffffffffffffffffffff166116c3565b156124bf578373ffffffffffffffffffffffffffffffffffffffff1663f23a6e6187878686866040518663ffffffff1660e01b815260040161234595949392919061317e565b602060405180830381600087803b15801561235f57600080fd5b505af192505050801561239057506040513d601f19601f8201168201806040525081019061238d9190612c11565b60015b6124365761239c6138ce565b806308c379a014156123f957506123b1613db2565b806123bc57506123fb565b806040517f08c379a00000000000000000000000000000000000000000000000000000000081526004016123f0919061324c565b60405180910390fd5b505b6040517f08c379a000000000000000000000000000000000000000000000000000000000815260040161242d9061326e565b60405180910390fd5b63f23a6e6160e01b7bffffffffffffffffffffffffffffffffffffffffffffffffffffffff1916817bffffffffffffffffffffffffffffffffffffffffffffffffffffffff1916146124bd576040517f08c379a00000000000000000000000000000000000000000000000000000000081526004016124b49061328e565b60405180910390fd5b505b505050505050565b6124e68473ffffffffffffffffffffffffffffffffffffffff166116c3565b156126a6578373ffffffffffffffffffffffffffffffffffffffff1663bc197c8187878686866040518663ffffffff1660e01b815260040161252c959493929190613116565b602060405180830381600087803b15801561254657600080fd5b505af192505050801561257757506040513d601f19601f820116820180604052508101906125749190612c11565b60015b61261d576125836138ce565b806308c379a014156125e05750612598613db2565b806125a357506125e2565b806040517f08c379a00000000000000000000000000000000000000000000000000000000081526004016125d7919061324c565b60405180910390fd5b505b6040517f08c379a00000000000000000000000000000000000000000000000000000000081526004016126149061326e565b60405180910390fd5b63bc197c8160e01b7bffffffffffffffffffffffffffffffffffffffffffffffffffffffff1916817bffffffffffffffffffffffffffffffffffffffffffffffffffffffff1916146126a4576040517f08c379a000000000000000000000000000000000000000000000000000000000815260040161269b9061328e565b60405180910390fd5b505b505050505050565b60006126c16126bc84613515565b6134f0565b905080838252602082019050828560208602820111156126e057600080fd5b60005b8581101561271057816126f68882612802565b8452602084019350602083019250506001810190506126e3565b5050509392505050565b600061272d61272884613541565b6134f0565b9050808382526020820190508285602086028201111561274c57600080fd5b60005b8581101561277c57816127628882612913565b84526020840193506020830192505060018101905061274f565b5050509392505050565b60006127996127948461356d565b6134f0565b9050828152602081018484840111156127b157600080fd5b6127bc848285613753565b509392505050565b60006127d76127d28461359e565b6134f0565b9050828152602081018484840111156127ef57600080fd5b6127fa848285613753565b509392505050565b60008135905061281181613e48565b92915050565b600082601f83011261282857600080fd5b81356128388482602086016126ae565b91505092915050565b600082601f83011261285257600080fd5b813561286284826020860161271a565b91505092915050565b60008135905061287a81613e5f565b92915050565b60008135905061288f81613e76565b92915050565b6000813590506128a481613e8d565b92915050565b6000815190506128b981613e8d565b92915050565b600082601f8301126128d057600080fd5b81356128e0848260208601612786565b91505092915050565b600082601f8301126128fa57600080fd5b813561290a8482602086016127c4565b91505092915050565b60008135905061292281613ea4565b92915050565b60006020828403121561293a57600080fd5b600061294884828501612802565b91505092915050565b6000806040838503121561296457600080fd5b600061297285828601612802565b925050602061298385828601612802565b9150509250929050565b600080600080600060a086880312156129a557600080fd5b60006129b388828901612802565b95505060206129c488828901612802565b945050604086013567ffffffffffffffff8111156129e157600080fd5b6129ed88828901612841565b935050606086013567ffffffffffffffff811115612a0a57600080fd5b612a1688828901612841565b925050608086013567ffffffffffffffff811115612a3357600080fd5b612a3f888289016128bf565b9150509295509295909350565b600080600080600060a08688031215612a6457600080fd5b6000612a7288828901612802565b9550506020612a8388828901612802565b9450506040612a9488828901612913565b9350506060612aa588828901612913565b925050608086013567ffffffffffffffff811115612ac257600080fd5b612ace888289016128bf565b9150509295509295909350565b60008060408385031215612aee57600080fd5b6000612afc85828601612802565b9250506020612b0d8582860161286b565b9150509250929050565b60008060408385031215612b2a57600080fd5b6000612b3885828601612802565b9250506020612b4985828601612913565b9150509250929050565b60008060408385031215612b6657600080fd5b600083013567ffffffffffffffff811115612b8057600080fd5b612b8c85828601612817565b925050602083013567ffffffffffffffff811115612ba957600080fd5b612bb585828601612841565b9150509250929050565b600060208284031215612bd157600080fd5b6000612bdf84828501612880565b91505092915050565b600060208284031215612bfa57600080fd5b6000612c0884828501612895565b91505092915050565b600060208284031215612c2357600080fd5b6000612c31848285016128aa565b91505092915050565b600060208284031215612c4c57600080fd5b600082013567ffffffffffffffff811115612c6657600080fd5b612c72848285016128e9565b91505092915050565b60008060408385031215612c8e57600080fd5b600083013567ffffffffffffffff811115612ca857600080fd5b612cb4858286016128e9565b9250506020612cc585828601612913565b9150509250929050565b600060208284031215612ce157600080fd5b6000612cef84828501612913565b91505092915050565b600080600060608486031215612d0d57600080fd5b6000612d1b86828701612913565b935050602084013567ffffffffffffffff811115612d3857600080fd5b612d44868287016128e9565b9250506040612d5586828701612913565b9150509250925092565b6000612d6b83836130c6565b60208301905092915050565b612d80816136d5565b82525050565b6000612d91826135df565b612d9b818561360d565b9350612da6836135cf565b8060005b83811015612dd7578151612dbe8882612d5f565b9750612dc983613600565b925050600181019050612daa565b5085935050505092915050565b612ded816136e7565b82525050565b6000612dfe826135ea565b612e08818561361e565b9350612e18818560208601613762565b612e21816138f0565b840191505092915050565b6000612e37826135f5565b612e41818561362f565b9350612e51818560208601613762565b612e5a816138f0565b840191505092915050565b6000612e70826135f5565b612e7a8185613640565b9350612e8a818560208601613762565b80840191505092915050565b6000612ea360348361362f565b9150612eae8261390e565b604082019050919050565b6000612ec660288361362f565b9150612ed18261395d565b604082019050919050565b6000612ee9602b8361362f565b9150612ef4826139ac565b604082019050919050565b6000612f0c60268361362f565b9150612f17826139fb565b604082019050919050565b6000612f2f60248361362f565b9150612f3a82613a4a565b604082019050919050565b6000612f5260298361362f565b9150612f5d82613a99565b604082019050919050565b6000612f75601c8361362f565b9150612f8082613ae8565b602082019050919050565b6000612f9860258361362f565b9150612fa382613b11565b604082019050919050565b6000612fbb60328361362f565b9150612fc682613b60565b604082019050919050565b6000612fde60238361362f565b9150612fe982613baf565b604082019050919050565b6000613001602a8361362f565b915061300c82613bfe565b604082019050919050565b600061302460208361362f565b915061302f82613c4d565b602082019050919050565b600061304760298361362f565b915061305282613c76565b604082019050919050565b600061306a60298361362f565b915061307582613cc5565b604082019050919050565b600061308d60288361362f565b915061309882613d14565b604082019050919050565b60006130b060218361362f565b91506130bb82613d63565b604082019050919050565b6130cf81613749565b82525050565b6130de81613749565b82525050565b60006130f08284612e65565b915081905092915050565b60006020820190506131106000830184612d77565b92915050565b600060a08201905061312b6000830188612d77565b6131386020830187612d77565b818103604083015261314a8186612d86565b9050818103606083015261315e8185612d86565b905081810360808301526131728184612df3565b90509695505050505050565b600060a0820190506131936000830188612d77565b6131a06020830187612d77565b6131ad60408301866130d5565b6131ba60608301856130d5565b81810360808301526131cc8184612df3565b90509695505050505050565b600060208201905081810360008301526131f28184612d86565b905092915050565b600060408201905081810360008301526132148185612d86565b905081810360208301526132288184612d86565b90509392505050565b60006020820190506132466000830184612de4565b92915050565b600060208201905081810360008301526132668184612e2c565b905092915050565b6000602082019050818103600083015261328781612e96565b9050919050565b600060208201905081810360008301526132a781612eb9565b9050919050565b600060208201905081810360008301526132c781612edc565b9050919050565b600060208201905081810360008301526132e781612eff565b9050919050565b6000602082019050818103600083015261330781612f22565b9050919050565b6000602082019050818103600083015261332781612f45565b9050919050565b6000602082019050818103600083015261334781612f68565b9050919050565b6000602082019050818103600083015261336781612f8b565b9050919050565b6000602082019050818103600083015261338781612fae565b9050919050565b600060208201905081810360008301526133a781612fd1565b9050919050565b600060208201905081810360008301526133c781612ff4565b9050919050565b600060208201905081810360008301526133e781613017565b9050919050565b600060208201905081810360008301526134078161303a565b9050919050565b600060208201905081810360008301526134278161305d565b9050919050565b6000602082019050818103600083015261344781613080565b9050919050565b60006020820190508181036000830152613467816130a3565b9050919050565b600060208201905061348360008301846130d5565b92915050565b600060608201905061349e60008301866130d5565b81810360208301526134b08185612e2c565b90506134bf60408301846130d5565b949350505050565b60006040820190506134dc60008301856130d5565b6134e960208301846130d5565b9392505050565b60006134fa61350b565b905061350682826137c7565b919050565b6000604051905090565b600067ffffffffffffffff8211156135305761352f61389f565b5b602082029050602081019050919050565b600067ffffffffffffffff82111561355c5761355b61389f565b5b602082029050602081019050919050565b600067ffffffffffffffff8211156135885761358761389f565b5b613591826138f0565b9050602081019050919050565b600067ffffffffffffffff8211156135b9576135b861389f565b5b6135c2826138f0565b9050602081019050919050565b6000819050602082019050919050565b600081519050919050565b600081519050919050565b600081519050919050565b6000602082019050919050565b600082825260208201905092915050565b600082825260208201905092915050565b600082825260208201905092915050565b600081905092915050565b600061365682613749565b915061366183613749565b9250827fffffffffffffffffffffffffffffffffffffffffffffffffffffffffffffffff0382111561369657613695613841565b5b828201905092915050565b60006136ac82613749565b91506136b783613749565b9250828210156136ca576136c9613841565b5b828203905092915050565b60006136e082613729565b9050919050565b60008115159050919050565b6000819050919050565b60007fffffffff0000000000000000000000000000000000000000000000000000000082169050919050565b600073ffffffffffffffffffffffffffffffffffffffff82169050919050565b6000819050919050565b82818337600083830152505050565b60005b83811015613780578082015181840152602081019050613765565b8381111561378f576000848401525b50505050565b600060028204905060018216806137ad57607f821691505b602082108114156137c1576137c0613870565b5b50919050565b6137d0826138f0565b810181811067ffffffffffffffff821117156137ef576137ee61389f565b5b80604052505050565b600061380382613749565b91507fffffffffffffffffffffffffffffffffffffffffffffffffffffffffffffffff82141561383657613835613841565b5b600182019050919050565b7f4e487b7100000000000000000000000000000000000000000000000000000000600052601160045260246000fd5b7f4e487b7100000000000000000000000000000000000000000000000000000000600052602260045260246000fd5b7f4e487b7100000000000000000000000000000000000000000000000000000000600052604160045260246000fd5b600060033d11156138ed5760046000803e6138ea600051613901565b90505b90565b6000601f19601f8301169050919050565b60008160e01c9050919050565b7f455243313135353a207472616e7366657220746f206e6f6e204552433131353560008201527f526563656976657220696d706c656d656e746572000000000000000000000000602082015250565b7f455243313135353a204552433131353552656365697665722072656a6563746560008201527f6420746f6b656e73000000000000000000000000000000000000000000000000602082015250565b7f455243313135353a2062616c616e636520717565727920666f7220746865207a60008201527f65726f2061646472657373000000000000000000000000000000000000000000602082015250565b7f4f776e61626c653a206e6577206f776e657220697320746865207a65726f206160008201527f6464726573730000000000000000000000000000000000000000000000000000602082015250565b7f455243313135353a206275726e20616d6f756e7420657863656564732062616c60008201527f616e636500000000000000000000000000000000000000000000000000000000602082015250565b7f455243313135353a2063616c6c6572206973206e6f74206f776e6572206e6f7260008201527f20617070726f7665640000000000000000000000000000000000000000000000602082015250565b7f417661746172733a20496e73756666696369656e7420746f6b656e7300000000600082015250565b7f455243313135353a207472616e7366657220746f20746865207a65726f20616460008201527f6472657373000000000000000000000000000000000000000000000000000000602082015250565b7f455243313135353a207472616e736665722063616c6c6572206973206e6f742060008201527f6f776e6572206e6f7220617070726f7665640000000000000000000000000000602082015250565b7f455243313135353a206275726e2066726f6d20746865207a65726f206164647260008201527f6573730000000000000000000000000000000000000000000000000000000000602082015250565b7f455243313135353a20696e73756666696369656e742062616c616e636520666f60008201527f72207472616e7366657200000000000000000000000000000000000000000000602082015250565b7f4f776e61626c653a2063616c6c6572206973206e6f7420746865206f776e6572600082015250565b7f455243313135353a2073657474696e6720617070726f76616c2073746174757360008201527f20666f722073656c660000000000000000000000000000000000000000000000602082015250565b7f455243313135353a206163636f756e747320616e6420696473206c656e67746860008201527f206d69736d617463680000000000000000000000000000000000000000000000602082015250565b7f455243313135353a2069647320616e6420616d6f756e7473206c656e6774682060008201527f6d69736d61746368000000000000000000000000000000000000000000000000602082015250565b7f455243313135353a206d696e7420746f20746865207a65726f2061646472657360008201527f7300000000000000000000000000000000000000000000000000000000000000602082015250565b600060443d1015613dc257613e45565b613dca61350b565b60043d036004823e80513d602482011167ffffffffffffffff82111715613df2575050613e45565b808201805167ffffffffffffffff811115613e105750505050613e45565b80602083010160043d038501811115613e2d575050505050613e45565b613e3c826020018501866137c7565b82955050505050505b90565b613e51816136d5565b8114613e5c57600080fd5b50565b613e68816136e7565b8114613e7357600080fd5b50565b613e7f816136f3565b8114613e8a57600080fd5b50565b613e96816136fd565b8114613ea157600080fd5b50565b613ead81613749565b8114613eb857600080fd5b5056fea26469706673582212201d66e253df46c2ac2439b37091893499b4f30c596ea3f0aa7a746b72d58451f164736f6c63430008040033",
  "immutableReferences": {},
  "source": "// SPDX-License-Identifier: MIT\r\npragma solidity ^0.8.0;\r\n\r\nimport \"@openzeppelin/contracts/token/ERC1155/ERC1155.sol\";\r\nimport \"@openzeppelin/contracts/access/Ownable.sol\";\r\n\r\n// Chainlink random number haven't implemented because of some limitations.\r\ncontract Avatars is ERC1155, Ownable {\r\n    uint256 public avatarCreationFee;\r\n    uint256 public attachmentCreationFee;\r\n    mapping(address => mapping(uint => uint)) public attachmentInUse; // owner => tokenId => no. of attachment attached to avatars\r\n\r\n    string[] public attachments = [\r\n        \"accessories\", \r\n        \"accessoriesColor\", \r\n        \"clotheGraphics\", \r\n        \"clothes\", \r\n        \"clothesColor\", \r\n        \"eyebrow\", \r\n        \"eyes\", \r\n        \"facialHair\", \r\n        \"facialHairColor\", \r\n        \"hairColor\", \r\n        \"hatColor\", \r\n        \"mouth\", \r\n        \"skin\", \r\n        \"top\"\r\n    ];\r\n\r\n    uint[] public totalAttachments = [6, 18, 10, 12, 18, 18, 14, 10, 12, 12, 18, 12, 7, 37];\r\n\r\n    uint public TRANSFORMIUM = 0;\r\n    uint256 public totalTokens = 1;\r\n\r\n    mapping(bytes32 => uint) public requestToToken; //request ID to token ID\r\n    mapping(bytes32 => address) public requestToOwner; //request ID to token ID\r\n    mapping(string => uint) public attachmentStartId;\r\n\r\n    // event AvatarCreated(address indexed owner, uint avatarId);\r\n    event AttachmentAdded(address indexed updater, uint avatarId, string attachmentName, uint attachmentId);\r\n    event AttachmentRemoved(address indexed updater, uint avatarId, string attachmentName, uint attachmentId);\r\n\r\n    constructor(uint _avatarCreationFee, uint _attachmentCreationFee) \r\n    ERC1155(\"\") {\r\n        avatarCreationFee = _avatarCreationFee;\r\n        attachmentCreationFee = _attachmentCreationFee;\r\n        for(uint i; i < attachments.length; i++){\r\n            string memory attachmentName = attachments[i];\r\n            attachmentStartId[attachmentName] = totalTokens;\r\n            totalTokens += totalAttachments[i];\r\n        }\r\n        _mint(_msgSender(), TRANSFORMIUM, 10**12, \"\");\r\n    }\r\n\r\n    function setAvatarCreationFee(uint fee) public onlyOwner {\r\n        avatarCreationFee = fee;\r\n    }\r\n\r\n    function setAttachmentCreationFee(uint fee) public onlyOwner {\r\n        attachmentCreationFee = fee;\r\n    }\r\n\r\n    function createAvatar() external {\r\n        uint tokenId = totalTokens;\r\n        _burn(_msgSender(), TRANSFORMIUM, avatarCreationFee);\r\n        _mint(_msgSender(), tokenId, 1, \"\");\r\n        // emit AvatarCreated(_msgSender(), tokenId);\r\n        totalTokens++;\r\n    }\r\n\r\n    function addAttachment(uint avatarId, string memory attachmentName, uint attachmentId) external {\r\n        uint tokenId = attachmentStartId[attachmentName] + attachmentId;\r\n        attachmentInUse[_msgSender()][tokenId] += 1;\r\n        // safeTransferFrom(_msgSender(), address(this), tokenId, 1, \"\");\r\n        emit AttachmentAdded(_msgSender(), avatarId, attachmentName, tokenId);\r\n    }\r\n\r\n    function removeAttachment(uint avatarId, string memory attachmentName, uint attachmentId) external {\r\n        uint tokenId = attachmentStartId[attachmentName] + attachmentId;\r\n        attachmentInUse[_msgSender()][tokenId] -= 1;\r\n        // safeTransferFrom(address(this), _msgSender(), tokenId, 1, \"\");\r\n        emit AttachmentRemoved(_msgSender(), avatarId, attachmentName, tokenId);\r\n    }\r\n\r\n    function buyAttachment(string memory attachmentName, uint attachmentId) external {\r\n        _burn(_msgSender(), TRANSFORMIUM, attachmentCreationFee);\r\n        uint tokenId = attachmentStartId[attachmentName] + attachmentId;\r\n        _mint(_msgSender(), tokenId, 1, \"\");\r\n    }\r\n\r\n    function sellAttachment(string memory attachmentName, uint attachmentId) external {\r\n        _mint(_msgSender(), TRANSFORMIUM, attachmentCreationFee, \"\");\r\n        uint tokenId = attachmentStartId[attachmentName] + attachmentId;\r\n        _burn(_msgSender(), tokenId, 1);\r\n    }\r\n\r\n    function safeTransferFrom(\r\n        address from,\r\n        address to,\r\n        uint256 id,\r\n        uint256 amount,\r\n        bytes memory data\r\n    )\r\n        public\r\n        override\r\n    {\r\n        require(balanceOf(from, id) - attachmentInUse[from][id] >= amount, \"Avatars: Insufficient tokens\");\r\n        super.safeTransferFrom(from, to, id, amount, data);\r\n    }\r\n\r\n    function safeBatchTransferFrom(\r\n        address from,\r\n        address to,\r\n        uint256[] memory ids,\r\n        uint256[] memory amounts,\r\n        bytes memory data\r\n    )\r\n        public\r\n        virtual\r\n        override\r\n    {\r\n        for (uint256 i = 0; i < ids.length; ++i) {\r\n            require(balanceOf(from, ids[i]) - attachmentInUse[from][ids[i]] >= amounts[i], \"Avatars: Insufficient tokens\");\r\n        }\r\n        super.safeBatchTransferFrom(from, to, ids, amounts, data);\r\n    }\r\n}",
  "sourcePath": "C:/Users/Root/Documents/my_ethereum/NFT-Avatars/truffle/contracts/Avatars.sol",
  "compiler": {
    "name": "solc",
    "version": "0.8.4+commit.c7e474f2.Emscripten.clang"
  },
  "schemaVersion": "3.3.3",
  "updatedAt": "2021-05-23T15:56:58.864Z",
  "networkType": "ethereum",
  "devdoc": {
    "kind": "dev",
    "methods": {
      "balanceOf(address,uint256)": {
        "details": "See {IERC1155-balanceOf}. Requirements: - `account` cannot be the zero address."
      },
      "balanceOfBatch(address[],uint256[])": {
        "details": "See {IERC1155-balanceOfBatch}. Requirements: - `accounts` and `ids` must have the same length."
      },
      "isApprovedForAll(address,address)": {
        "details": "See {IERC1155-isApprovedForAll}."
      },
      "owner()": {
        "details": "Returns the address of the current owner."
      },
      "renounceOwnership()": {
        "details": "Leaves the contract without owner. It will not be possible to call `onlyOwner` functions anymore. Can only be called by the current owner. NOTE: Renouncing ownership will leave the contract without an owner, thereby removing any functionality that is only available to the owner."
      },
      "safeBatchTransferFrom(address,address,uint256[],uint256[],bytes)": {
        "details": "See {IERC1155-safeBatchTransferFrom}."
      },
      "safeTransferFrom(address,address,uint256,uint256,bytes)": {
        "details": "See {IERC1155-safeTransferFrom}."
      },
      "setApprovalForAll(address,bool)": {
        "details": "See {IERC1155-setApprovalForAll}."
      },
      "supportsInterface(bytes4)": {
        "details": "See {IERC165-supportsInterface}."
      },
      "transferOwnership(address)": {
        "details": "Transfers ownership of the contract to a new account (`newOwner`). Can only be called by the current owner."
      },
      "uri(uint256)": {
        "details": "See {IERC1155MetadataURI-uri}. This implementation returns the same URI for *all* token types. It relies on the token type ID substitution mechanism https://eips.ethereum.org/EIPS/eip-1155#metadata[defined in the EIP]. Clients calling this function must replace the `\\{id\\}` substring with the actual token type ID."
      }
    },
    "version": 1
  },
  "userdoc": {
    "kind": "user",
    "methods": {},
    "version": 1
  }
}