{
  "contractName": "Avatars",
  "abi": [
    {
      "inputs": [],
      "stateMutability": "nonpayable",
      "type": "constructor"
    },
    {
      "anonymous": false,
      "inputs": [
        {
          "indexed": true,
          "internalType": "address",
          "name": "account",
          "type": "address"
        },
        {
          "indexed": true,
          "internalType": "address",
          "name": "operator",
          "type": "address"
        },
        {
          "indexed": false,
          "internalType": "bool",
          "name": "approved",
          "type": "bool"
        }
      ],
      "name": "ApprovalForAll",
      "type": "event"
    },
    {
      "anonymous": false,
      "inputs": [
        {
          "indexed": true,
          "internalType": "address",
          "name": "updater",
          "type": "address"
        },
        {
          "indexed": false,
          "internalType": "uint256",
          "name": "avatarId",
          "type": "uint256"
        },
        {
          "indexed": false,
          "internalType": "string",
          "name": "attachmentName",
          "type": "string"
        },
        {
          "indexed": false,
          "internalType": "uint256",
          "name": "attachmentId",
          "type": "uint256"
        }
      ],
      "name": "AttachmentAdded",
      "type": "event"
    },
    {
      "anonymous": false,
      "inputs": [
        {
          "indexed": true,
          "internalType": "address",
          "name": "updater",
          "type": "address"
        },
        {
          "indexed": false,
          "internalType": "uint256",
          "name": "avatarId",
          "type": "uint256"
        },
        {
          "indexed": false,
          "internalType": "string",
          "name": "attachmentName",
          "type": "string"
        },
        {
          "indexed": false,
          "internalType": "uint256",
          "name": "attachmentId",
          "type": "uint256"
        }
      ],
      "name": "AttachmentRemoved",
      "type": "event"
    },
    {
      "anonymous": false,
      "inputs": [
        {
          "indexed": true,
          "internalType": "address",
          "name": "owner",
          "type": "address"
        },
        {
          "indexed": false,
          "internalType": "uint256",
          "name": "avatarId",
          "type": "uint256"
        }
      ],
      "name": "AvatarCreated",
      "type": "event"
    },
    {
      "anonymous": false,
      "inputs": [
        {
          "indexed": true,
          "internalType": "address",
          "name": "operator",
          "type": "address"
        },
        {
          "indexed": true,
          "internalType": "address",
          "name": "from",
          "type": "address"
        },
        {
          "indexed": true,
          "internalType": "address",
          "name": "to",
          "type": "address"
        },
        {
          "indexed": false,
          "internalType": "uint256[]",
          "name": "ids",
          "type": "uint256[]"
        },
        {
          "indexed": false,
          "internalType": "uint256[]",
          "name": "values",
          "type": "uint256[]"
        }
      ],
      "name": "TransferBatch",
      "type": "event"
    },
    {
      "anonymous": false,
      "inputs": [
        {
          "indexed": true,
          "internalType": "address",
          "name": "operator",
          "type": "address"
        },
        {
          "indexed": true,
          "internalType": "address",
          "name": "from",
          "type": "address"
        },
        {
          "indexed": true,
          "internalType": "address",
          "name": "to",
          "type": "address"
        },
        {
          "indexed": false,
          "internalType": "uint256",
          "name": "id",
          "type": "uint256"
        },
        {
          "indexed": false,
          "internalType": "uint256",
          "name": "value",
          "type": "uint256"
        }
      ],
      "name": "TransferSingle",
      "type": "event"
    },
    {
      "anonymous": false,
      "inputs": [
        {
          "indexed": false,
          "internalType": "string",
          "name": "value",
          "type": "string"
        },
        {
          "indexed": true,
          "internalType": "uint256",
          "name": "id",
          "type": "uint256"
        }
      ],
      "name": "URI",
      "type": "event"
    },
    {
      "inputs": [],
      "name": "attachmentCreationFee",
      "outputs": [
        {
          "internalType": "uint256",
          "name": "",
          "type": "uint256"
        }
      ],
      "stateMutability": "view",
      "type": "function"
    },
    {
      "inputs": [
        {
          "internalType": "string",
          "name": "",
          "type": "string"
        }
      ],
      "name": "attachmentStartId",
      "outputs": [
        {
          "internalType": "uint256",
          "name": "",
          "type": "uint256"
        }
      ],
      "stateMutability": "view",
      "type": "function"
    },
    {
      "inputs": [
        {
          "internalType": "uint256",
          "name": "",
          "type": "uint256"
        }
      ],
      "name": "attachments",
      "outputs": [
        {
          "internalType": "string",
          "name": "",
          "type": "string"
        }
      ],
      "stateMutability": "view",
      "type": "function"
    },
    {
      "inputs": [],
      "name": "avatarCreationFee",
      "outputs": [
        {
          "internalType": "uint256",
          "name": "",
          "type": "uint256"
        }
      ],
      "stateMutability": "view",
      "type": "function"
    },
    {
      "inputs": [
        {
          "internalType": "address",
          "name": "account",
          "type": "address"
        },
        {
          "internalType": "uint256",
          "name": "id",
          "type": "uint256"
        }
      ],
      "name": "balanceOf",
      "outputs": [
        {
          "internalType": "uint256",
          "name": "",
          "type": "uint256"
        }
      ],
      "stateMutability": "view",
      "type": "function"
    },
    {
      "inputs": [
        {
          "internalType": "address[]",
          "name": "accounts",
          "type": "address[]"
        },
        {
          "internalType": "uint256[]",
          "name": "ids",
          "type": "uint256[]"
        }
      ],
      "name": "balanceOfBatch",
      "outputs": [
        {
          "internalType": "uint256[]",
          "name": "",
          "type": "uint256[]"
        }
      ],
      "stateMutability": "view",
      "type": "function"
    },
    {
      "inputs": [
        {
          "internalType": "address",
          "name": "account",
          "type": "address"
        },
        {
          "internalType": "address",
          "name": "operator",
          "type": "address"
        }
      ],
      "name": "isApprovedForAll",
      "outputs": [
        {
          "internalType": "bool",
          "name": "",
          "type": "bool"
        }
      ],
      "stateMutability": "view",
      "type": "function"
    },
    {
      "inputs": [
        {
          "internalType": "bytes32",
          "name": "",
          "type": "bytes32"
        }
      ],
      "name": "requestToOwner",
      "outputs": [
        {
          "internalType": "address",
          "name": "",
          "type": "address"
        }
      ],
      "stateMutability": "view",
      "type": "function"
    },
    {
      "inputs": [
        {
          "internalType": "bytes32",
          "name": "",
          "type": "bytes32"
        }
      ],
      "name": "requestToToken",
      "outputs": [
        {
          "internalType": "uint256",
          "name": "",
          "type": "uint256"
        }
      ],
      "stateMutability": "view",
      "type": "function"
    },
    {
      "inputs": [
        {
          "internalType": "address",
          "name": "from",
          "type": "address"
        },
        {
          "internalType": "address",
          "name": "to",
          "type": "address"
        },
        {
          "internalType": "uint256[]",
          "name": "ids",
          "type": "uint256[]"
        },
        {
          "internalType": "uint256[]",
          "name": "amounts",
          "type": "uint256[]"
        },
        {
          "internalType": "bytes",
          "name": "data",
          "type": "bytes"
        }
      ],
      "name": "safeBatchTransferFrom",
      "outputs": [],
      "stateMutability": "nonpayable",
      "type": "function"
    },
    {
      "inputs": [
        {
          "internalType": "address",
          "name": "from",
          "type": "address"
        },
        {
          "internalType": "address",
          "name": "to",
          "type": "address"
        },
        {
          "internalType": "uint256",
          "name": "id",
          "type": "uint256"
        },
        {
          "internalType": "uint256",
          "name": "amount",
          "type": "uint256"
        },
        {
          "internalType": "bytes",
          "name": "data",
          "type": "bytes"
        }
      ],
      "name": "safeTransferFrom",
      "outputs": [],
      "stateMutability": "nonpayable",
      "type": "function"
    },
    {
      "inputs": [
        {
          "internalType": "address",
          "name": "operator",
          "type": "address"
        },
        {
          "internalType": "bool",
          "name": "approved",
          "type": "bool"
        }
      ],
      "name": "setApprovalForAll",
      "outputs": [],
      "stateMutability": "nonpayable",
      "type": "function"
    },
    {
      "inputs": [
        {
          "internalType": "bytes4",
          "name": "interfaceId",
          "type": "bytes4"
        }
      ],
      "name": "supportsInterface",
      "outputs": [
        {
          "internalType": "bool",
          "name": "",
          "type": "bool"
        }
      ],
      "stateMutability": "view",
      "type": "function"
    },
    {
      "inputs": [
        {
          "internalType": "uint256",
          "name": "",
          "type": "uint256"
        }
      ],
      "name": "totalAttachments",
      "outputs": [
        {
          "internalType": "uint256",
          "name": "",
          "type": "uint256"
        }
      ],
      "stateMutability": "view",
      "type": "function"
    },
    {
      "inputs": [],
      "name": "totalTokens",
      "outputs": [
        {
          "internalType": "uint256",
          "name": "",
          "type": "uint256"
        }
      ],
      "stateMutability": "view",
      "type": "function"
    },
    {
      "inputs": [
        {
          "internalType": "uint256",
          "name": "",
          "type": "uint256"
        }
      ],
      "name": "uri",
      "outputs": [
        {
          "internalType": "string",
          "name": "",
          "type": "string"
        }
      ],
      "stateMutability": "view",
      "type": "function"
    },
    {
      "inputs": [],
      "name": "createAvatar",
      "outputs": [],
      "stateMutability": "nonpayable",
      "type": "function"
    },
    {
      "inputs": [
        {
          "internalType": "uint256",
          "name": "avatarId",
          "type": "uint256"
        },
        {
          "internalType": "string",
          "name": "attachmentName",
          "type": "string"
        },
        {
          "internalType": "uint256",
          "name": "attachmentId",
          "type": "uint256"
        }
      ],
      "name": "addAttachment",
      "outputs": [],
      "stateMutability": "nonpayable",
      "type": "function"
    },
    {
      "inputs": [
        {
          "internalType": "uint256",
          "name": "avatarId",
          "type": "uint256"
        },
        {
          "internalType": "string",
          "name": "attachmentName",
          "type": "string"
        },
        {
          "internalType": "uint256",
          "name": "attachmentId",
          "type": "uint256"
        }
      ],
      "name": "removeAttachment",
      "outputs": [],
      "stateMutability": "nonpayable",
      "type": "function"
    },
    {
      "inputs": [
        {
          "internalType": "string",
          "name": "attachmentName",
          "type": "string"
        },
        {
          "internalType": "uint256",
          "name": "attachmentId",
          "type": "uint256"
        }
      ],
      "name": "buyAttachment",
      "outputs": [],
      "stateMutability": "nonpayable",
      "type": "function"
    },
    {
      "inputs": [
        {
          "internalType": "string",
          "name": "attachmentName",
          "type": "string"
        },
        {
          "internalType": "uint256",
          "name": "attachmentId",
          "type": "uint256"
        }
      ],
      "name": "sellAttachment",
      "outputs": [],
      "stateMutability": "nonpayable",
      "type": "function"
    },
    {
      "inputs": [
        {
          "internalType": "address",
          "name": "operator",
          "type": "address"
        },
        {
          "internalType": "address",
          "name": "from",
          "type": "address"
        },
        {
          "internalType": "uint256",
          "name": "id",
          "type": "uint256"
        },
        {
          "internalType": "uint256",
          "name": "value",
          "type": "uint256"
        },
        {
          "internalType": "bytes",
          "name": "data",
          "type": "bytes"
        }
      ],
      "name": "onERC1155Received",
      "outputs": [
        {
          "internalType": "bytes4",
          "name": "",
          "type": "bytes4"
        }
      ],
      "stateMutability": "nonpayable",
      "type": "function"
    },
    {
      "inputs": [
        {
          "internalType": "address",
          "name": "operator",
          "type": "address"
        },
        {
          "internalType": "address",
          "name": "from",
          "type": "address"
        },
        {
          "internalType": "uint256[]",
          "name": "ids",
          "type": "uint256[]"
        },
        {
          "internalType": "uint256[]",
          "name": "values",
          "type": "uint256[]"
        },
        {
          "internalType": "bytes",
          "name": "data",
          "type": "bytes"
        }
      ],
      "name": "onERC1155BatchReceived",
      "outputs": [
        {
          "internalType": "bytes4",
          "name": "",
          "type": "bytes4"
        }
      ],
      "stateMutability": "nonpayable",
      "type": "function"
    }
  ],
  "bytecode": "0x60806040526000600355604051806101c001604052806040518060400160405280600b81526020017f6163636573736f7269657300000000000000000000000000000000000000000081525081526020016040518060400160405280601081526020017f6163636573736f72696573436f6c6f720000000000000000000000000000000081525081526020016040518060400160405280600e81526020017f636c6f746865477261706869637300000000000000000000000000000000000081525081526020016040518060400160405280600781526020017f636c6f746865730000000000000000000000000000000000000000000000000081525081526020016040518060400160405280600c81526020017f636c6f74686573436f6c6f72000000000000000000000000000000000000000081525081526020016040518060400160405280600781526020017f65796562726f770000000000000000000000000000000000000000000000000081525081526020016040518060400160405280600481526020017f657965730000000000000000000000000000000000000000000000000000000081525081526020016040518060400160405280600a81526020017f66616369616c486169720000000000000000000000000000000000000000000081525081526020016040518060400160405280600f81526020017f66616369616c48616972436f6c6f72000000000000000000000000000000000081525081526020016040518060400160405280600981526020017f68616972436f6c6f72000000000000000000000000000000000000000000000081525081526020016040518060400160405280600881526020017f686174436f6c6f7200000000000000000000000000000000000000000000000081525081526020016040518060400160405280600581526020017f6d6f75746800000000000000000000000000000000000000000000000000000081525081526020016040518060400160405280600481526020017f736b696e0000000000000000000000000000000000000000000000000000000081525081526020016040518060400160405280600381526020017f746f700000000000000000000000000000000000000000000000000000000000815250815250600890600e6200035f929190620005e5565b50604051806101c00160405280600660ff168152602001601260ff168152602001600a60ff168152602001600c60ff168152602001601260ff168152602001601260ff168152602001600e60ff168152602001600a60ff168152602001600c60ff168152602001600c60ff168152602001601260ff168152602001600c60ff168152602001600760ff168152602001602560ff16815250600990600e620004089291906200064c565b503480156200041657600080fd5b50604051806020016040528060008152506200043881620005c960201b60201c565b5060005b600880549050811015620005c25760006008828154811062000487577f4e487b7100000000000000000000000000000000000000000000000000000000600052603260045260246000fd5b9060005260206000200180546200049e90620008c4565b80601f0160208091040260200160405190810160405280929190818152602001828054620004cc90620008c4565b80156200051d5780601f10620004f1576101008083540402835291602001916200051d565b820191906000526020600020905b815481529060010190602001808311620004ff57829003601f168201915b50505050509050600354600c82604051620005399190620007f8565b9081526020016040518091039020819055506009828154811062000586577f4e487b7100000000000000000000000000000000000000000000000000000000600052603260045260246000fd5b906000526020600020015460036000828254620005a4919062000827565b92505081905550508080620005b990620008fa565b9150506200043c565b50620009a6565b8060029080519060200190620005e1929190620006a3565b5050565b82805482825590600052602060002090810192821562000639579160200282015b828111156200063857825182908051906020019062000627929190620006a3565b509160200191906001019062000606565b5b50905062000648919062000734565b5090565b82805482825590600052602060002090810192821562000690579160200282015b828111156200068f578251829060ff169055916020019190600101906200066d565b5b5090506200069f91906200075c565b5090565b828054620006b190620008c4565b90600052602060002090601f016020900481019282620006d5576000855562000721565b82601f10620006f057805160ff191683800117855562000721565b8280016001018555821562000721579182015b828111156200072057825182559160200191906001019062000703565b5b5090506200073091906200075c565b5090565b5b808211156200075857600081816200074e91906200077b565b5060010162000735565b5090565b5b80821115620007775760008160009055506001016200075d565b5090565b5080546200078990620008c4565b6000825580601f106200079d5750620007be565b601f016020900490600052602060002090810190620007bd91906200075c565b5b50565b6000620007ce8262000811565b620007da81856200081c565b9350620007ec8185602086016200088e565b80840191505092915050565b6000620008068284620007c1565b915081905092915050565b600081519050919050565b600081905092915050565b6000620008348262000884565b9150620008418362000884565b9250827fffffffffffffffffffffffffffffffffffffffffffffffffffffffffffffffff0382111562000879576200087862000948565b5b828201905092915050565b6000819050919050565b60005b83811015620008ae57808201518184015260208101905062000891565b83811115620008be576000848401525b50505050565b60006002820490506001821680620008dd57607f821691505b60208210811415620008f457620008f362000977565b5b50919050565b6000620009078262000884565b91507fffffffffffffffffffffffffffffffffffffffffffffffffffffffffffffffff8214156200093d576200093c62000948565b5b600182019050919050565b7f4e487b7100000000000000000000000000000000000000000000000000000000600052601160045260246000fd5b7f4e487b7100000000000000000000000000000000000000000000000000000000600052602260045260246000fd5b6137c880620009b66000396000f3fe608060405234801561001057600080fd5b506004361061014c5760003560e01c80638bd89ce8116100c3578063df420c891161007c578063df420c89146103c1578063e0a5f5ea146103f1578063e985e9c514610421578063f15e99c314610451578063f23a6e611461046d578063f242432a1461049d5761014c565b80638bd89ce8146102ed578063968aff5f14610309578063a22cb46514610339578063aec3c8ee14610355578063b652a27614610373578063bc197c81146103915761014c565b80632eb2c2d6116101155780632eb2c2d61461022d578063312321bf146102495780634e1273f4146102655780635e5cd13a1461029557806362ff09d61461029f5780637e1c0c09146102cf5761014c565b8062fdd58e1461015157806301ffc9a7146101815780630ba5973f146101b15780630d6a2033146101cd5780630e89341c146101fd575b600080fd5b61016b6004803603810190610166919061252e565b6104b9565b6040516101789190612de6565b60405180910390f35b61019b600480360381019061019691906125ff565b610582565b6040516101a89190612bee565b60405180910390f35b6101cb60048036038101906101c69190612692565b610664565b005b6101e760048036038101906101e291906126e6565b6106aa565b6040516101f49190612c24565b60405180910390f35b610217600480360381019061021291906126e6565b610756565b6040516102249190612c24565b60405180910390f35b61024760048036038101906102429190612312565b6107ea565b005b610263600480360381019061025e919061270f565b610be0565b005b61027f600480360381019061027a919061256a565b610c91565b60405161028c9190612b95565b60405180910390f35b61029d610e42565b005b6102b960048036038101906102b491906125d6565b610edc565b6040516102c69190612de6565b60405180910390f35b6102d7610ef4565b6040516102e49190612de6565b60405180910390f35b6103076004803603810190610302919061270f565b610efa565b005b610323600480360381019061031e91906125d6565b610fab565b6040516103309190612ab8565b60405180910390f35b610353600480360381019061034e91906124f2565b610fde565b005b61035d61115f565b60405161036a9190612de6565b60405180910390f35b61037b611165565b6040516103889190612de6565b60405180910390f35b6103ab60048036038101906103a69190612246565b61116b565b6040516103b89190612c09565b60405180910390f35b6103db60048036038101906103d691906126e6565b61119c565b6040516103e89190612de6565b60405180910390f35b61040b60048036038101906104069190612651565b6111c0565b6040516104189190612de6565b60405180910390f35b61043b6004803603810190610436919061220a565b6111ee565b6040516104489190612bee565b60405180910390f35b61046b60048036038101906104669190612692565b611282565b005b610487600480360381019061048291906123d1565b6112d8565b6040516104949190612c09565b60405180910390f35b6104b760048036038101906104b29190612463565b611307565b005b60008073ffffffffffffffffffffffffffffffffffffffff168373ffffffffffffffffffffffffffffffffffffffff16141561052a576040517f08c379a000000000000000000000000000000000000000000000000000000000815260040161052190612c86565b60405180910390fd5b60008083815260200190815260200160002060008473ffffffffffffffffffffffffffffffffffffffff1673ffffffffffffffffffffffffffffffffffffffff16815260200190815260200160002054905092915050565b60007fd9b67a26000000000000000000000000000000000000000000000000000000007bffffffffffffffffffffffffffffffffffffffffffffffffffffffff1916827bffffffffffffffffffffffffffffffffffffffffffffffffffffffff1916148061064d57507f0e89341c000000000000000000000000000000000000000000000000000000007bffffffffffffffffffffffffffffffffffffffffffffffffffffffff1916827bffffffffffffffffffffffffffffffffffffffffffffffffffffffff1916145b8061065d575061065c8261161f565b5b9050919050565b600081600c846040516106779190612aa1565b9081526020016040518091039020546106909190612fc3565b90506106a561069d611689565b826001611691565b505050565b600881815481106106ba57600080fd5b9060005260206000200160009150905080546106d59061310d565b80601f01602080910402602001604051908101604052809291908181526020018280546107019061310d565b801561074e5780601f106107235761010080835404028352916020019161074e565b820191906000526020600020905b81548152906001019060200180831161073157829003601f168201915b505050505081565b6060600280546107659061310d565b80601f01602080910402602001604051908101604052809291908181526020018280546107919061310d565b80156107de5780601f106107b3576101008083540402835291602001916107de565b820191906000526020600020905b8154815290600101906020018083116107c157829003601f168201915b50505050509050919050565b815183511461082e576040517f08c379a000000000000000000000000000000000000000000000000000000000815260040161082590612da6565b60405180910390fd5b600073ffffffffffffffffffffffffffffffffffffffff168473ffffffffffffffffffffffffffffffffffffffff16141561089e576040517f08c379a000000000000000000000000000000000000000000000000000000000815260040161089590612ce6565b60405180910390fd5b6108a6611689565b73ffffffffffffffffffffffffffffffffffffffff168573ffffffffffffffffffffffffffffffffffffffff1614806108ec57506108eb856108e6611689565b6111ee565b5b61092b576040517f08c379a000000000000000000000000000000000000000000000000000000000815260040161092290612d06565b60405180910390fd5b6000610935611689565b90506109458187878787876118b7565b60005b8451811015610b4b57600085828151811061098c577f4e487b7100000000000000000000000000000000000000000000000000000000600052603260045260246000fd5b6020026020010151905060008583815181106109d1577f4e487b7100000000000000000000000000000000000000000000000000000000600052603260045260246000fd5b60200260200101519050600080600084815260200190815260200160002060008b73ffffffffffffffffffffffffffffffffffffffff1673ffffffffffffffffffffffffffffffffffffffff16815260200190815260200160002054905081811015610a72576040517f08c379a0000000000000000000000000000000000000000000000000000000008152600401610a6990612d46565b60405180910390fd5b8181610a7e9190613019565b60008085815260200190815260200160002060008c73ffffffffffffffffffffffffffffffffffffffff1673ffffffffffffffffffffffffffffffffffffffff168152602001908152602001600020819055508160008085815260200190815260200160002060008b73ffffffffffffffffffffffffffffffffffffffff1673ffffffffffffffffffffffffffffffffffffffff1681526020019081526020016000206000828254610b309190612fc3565b9250508190555050505080610b4490613170565b9050610948565b508473ffffffffffffffffffffffffffffffffffffffff168673ffffffffffffffffffffffffffffffffffffffff168273ffffffffffffffffffffffffffffffffffffffff167f4a39dc06d4c0dbc64b70af90fd698a233a518aa5d07e595d983b8c0526c8f7fb8787604051610bc2929190612bb7565b60405180910390a4610bd88187878787876118bf565b505050505050565b600081600c84604051610bf39190612aa1565b908152602001604051809103902054610c0c9190612fc3565b9050610c32610c19611689565b3083600160405180602001604052806000815250611307565b610c3a611689565b73ffffffffffffffffffffffffffffffffffffffff167fd095d6269e59f85ad800fbbe0e4f9bcaf64602fe0face60138f74f3cacdf7de9858584604051610c8393929190612e01565b60405180910390a250505050565b60608151835114610cd7576040517f08c379a0000000000000000000000000000000000000000000000000000000008152600401610cce90612d86565b60405180910390fd5b6000835167ffffffffffffffff811115610d1a577f4e487b7100000000000000000000000000000000000000000000000000000000600052604160045260246000fd5b604051908082528060200260200182016040528015610d485781602001602082028036833780820191505090505b50905060005b8451811015610e3757610de1858281518110610d93577f4e487b7100000000000000000000000000000000000000000000000000000000600052603260045260246000fd5b6020026020010151858381518110610dd4577f4e487b7100000000000000000000000000000000000000000000000000000000600052603260045260246000fd5b60200260200101516104b9565b828281518110610e1a577f4e487b7100000000000000000000000000000000000000000000000000000000600052603260045260246000fd5b60200260200101818152505080610e3090613170565b9050610d4e565b508091505092915050565b60006003549050610e6c610e54611689565b82600160405180602001604052806000815250611aa6565b610e74611689565b73ffffffffffffffffffffffffffffffffffffffff167f875c5fead33a6f1a1c17bb436cbf2b0ce75a5fc0ad1b15004627b3ef3a94d43a82604051610eb99190612de6565b60405180910390a260036000815480929190610ed490613170565b919050555050565b600a6020528060005260406000206000915090505481565b60035481565b600081600c84604051610f0d9190612aa1565b908152602001604051809103902054610f269190612fc3565b9050610f4c30610f34611689565b83600160405180602001604052806000815250611307565b610f54611689565b73ffffffffffffffffffffffffffffffffffffffff167f2d36578065867984e901072433ac52b32c1afe6b3ea07ed1a8f07c921ed63c1b858584604051610f9d93929190612e01565b60405180910390a250505050565b600b6020528060005260406000206000915054906101000a900473ffffffffffffffffffffffffffffffffffffffff1681565b8173ffffffffffffffffffffffffffffffffffffffff16610ffd611689565b73ffffffffffffffffffffffffffffffffffffffff161415611054576040517f08c379a000000000000000000000000000000000000000000000000000000000815260040161104b90612d66565b60405180910390fd5b8060016000611061611689565b73ffffffffffffffffffffffffffffffffffffffff1673ffffffffffffffffffffffffffffffffffffffff16815260200190815260200160002060008473ffffffffffffffffffffffffffffffffffffffff1673ffffffffffffffffffffffffffffffffffffffff16815260200190815260200160002060006101000a81548160ff0219169083151502179055508173ffffffffffffffffffffffffffffffffffffffff1661110e611689565b73ffffffffffffffffffffffffffffffffffffffff167f17307eab39ab6107e8899845ad3d59bd9653f200f220920489ca2b5937696c31836040516111539190612bee565b60405180910390a35050565b60065481565b60075481565b60007fbc197c819b3e337a6f9652dd10becd7eef83032af3b9d958d3d42f6694146621905098975050505050505050565b600981815481106111ac57600080fd5b906000526020600020016000915090505481565b600c818051602081018201805184825260208301602085012081835280955050505050506000915090505481565b6000600160008473ffffffffffffffffffffffffffffffffffffffff1673ffffffffffffffffffffffffffffffffffffffff16815260200190815260200160002060008373ffffffffffffffffffffffffffffffffffffffff1673ffffffffffffffffffffffffffffffffffffffff16815260200190815260200160002060009054906101000a900460ff16905092915050565b600081600c846040516112959190612aa1565b9081526020016040518091039020546112ae9190612fc3565b90506112d36112bb611689565b82600160405180602001604052806000815250611aa6565b505050565b60007ff23a6e612e1ff4830e658fe43f4e3cb4a5f8170bd5d9e69fb5d7a7fa9e4fdf9790509695505050505050565b600073ffffffffffffffffffffffffffffffffffffffff168473ffffffffffffffffffffffffffffffffffffffff161415611377576040517f08c379a000000000000000000000000000000000000000000000000000000000815260040161136e90612ce6565b60405180910390fd5b61137f611689565b73ffffffffffffffffffffffffffffffffffffffff168573ffffffffffffffffffffffffffffffffffffffff1614806113c557506113c4856113bf611689565b6111ee565b5b611404576040517f08c379a00000000000000000000000000000000000000000000000000000000081526004016113fb90612cc6565b60405180910390fd5b600061140e611689565b905061142e81878761141f88611c3c565b61142888611c3c565b876118b7565b600080600086815260200190815260200160002060008873ffffffffffffffffffffffffffffffffffffffff1673ffffffffffffffffffffffffffffffffffffffff168152602001908152602001600020549050838110156114c5576040517f08c379a00000000000000000000000000000000000000000000000000000000081526004016114bc90612d46565b60405180910390fd5b83816114d19190613019565b60008087815260200190815260200160002060008973ffffffffffffffffffffffffffffffffffffffff1673ffffffffffffffffffffffffffffffffffffffff168152602001908152602001600020819055508360008087815260200190815260200160002060008873ffffffffffffffffffffffffffffffffffffffff1673ffffffffffffffffffffffffffffffffffffffff16815260200190815260200160002060008282546115839190612fc3565b925050819055508573ffffffffffffffffffffffffffffffffffffffff168773ffffffffffffffffffffffffffffffffffffffff168373ffffffffffffffffffffffffffffffffffffffff167fc3d58168c5ae7397731d063d5bbf3d657854427343f4c083240f7aacaa2d0f628888604051611600929190612e3f565b60405180910390a4611616828888888888611d02565b50505050505050565b60007f01ffc9a7000000000000000000000000000000000000000000000000000000007bffffffffffffffffffffffffffffffffffffffffffffffffffffffff1916827bffffffffffffffffffffffffffffffffffffffffffffffffffffffff1916149050919050565b600033905090565b600073ffffffffffffffffffffffffffffffffffffffff168373ffffffffffffffffffffffffffffffffffffffff161415611701576040517f08c379a00000000000000000000000000000000000000000000000000000000081526004016116f890612d26565b60405180910390fd5b600061170b611689565b905061173b8185600061171d87611c3c565b61172687611c3c565b604051806020016040528060008152506118b7565b600080600085815260200190815260200160002060008673ffffffffffffffffffffffffffffffffffffffff1673ffffffffffffffffffffffffffffffffffffffff168152602001908152602001600020549050828110156117d2576040517f08c379a00000000000000000000000000000000000000000000000000000000081526004016117c990612ca6565b60405180910390fd5b82816117de9190613019565b60008086815260200190815260200160002060008773ffffffffffffffffffffffffffffffffffffffff1673ffffffffffffffffffffffffffffffffffffffff16815260200190815260200160002081905550600073ffffffffffffffffffffffffffffffffffffffff168573ffffffffffffffffffffffffffffffffffffffff168373ffffffffffffffffffffffffffffffffffffffff167fc3d58168c5ae7397731d063d5bbf3d657854427343f4c083240f7aacaa2d0f6287876040516118a8929190612e3f565b60405180910390a45050505050565b505050505050565b6118de8473ffffffffffffffffffffffffffffffffffffffff16611ee9565b15611a9e578373ffffffffffffffffffffffffffffffffffffffff1663bc197c8187878686866040518663ffffffff1660e01b8152600401611924959493929190612ad3565b602060405180830381600087803b15801561193e57600080fd5b505af192505050801561196f57506040513d601f19601f8201168201806040525081019061196c9190612628565b60015b611a155761197b613246565b806308c379a014156119d85750611990613689565b8061199b57506119da565b806040517f08c379a00000000000000000000000000000000000000000000000000000000081526004016119cf9190612c24565b60405180910390fd5b505b6040517f08c379a0000000000000000000000000000000000000000000000000000000008152600401611a0c90612c46565b60405180910390fd5b63bc197c8160e01b7bffffffffffffffffffffffffffffffffffffffffffffffffffffffff1916817bffffffffffffffffffffffffffffffffffffffffffffffffffffffff191614611a9c576040517f08c379a0000000000000000000000000000000000000000000000000000000008152600401611a9390612c66565b60405180910390fd5b505b505050505050565b600073ffffffffffffffffffffffffffffffffffffffff168473ffffffffffffffffffffffffffffffffffffffff161415611b16576040517f08c379a0000000000000000000000000000000000000000000000000000000008152600401611b0d90612dc6565b60405180910390fd5b6000611b20611689565b9050611b4181600087611b3288611c3c565b611b3b88611c3c565b876118b7565b8260008086815260200190815260200160002060008773ffffffffffffffffffffffffffffffffffffffff1673ffffffffffffffffffffffffffffffffffffffff1681526020019081526020016000206000828254611ba09190612fc3565b925050819055508473ffffffffffffffffffffffffffffffffffffffff16600073ffffffffffffffffffffffffffffffffffffffff168273ffffffffffffffffffffffffffffffffffffffff167fc3d58168c5ae7397731d063d5bbf3d657854427343f4c083240f7aacaa2d0f628787604051611c1e929190612e3f565b60405180910390a4611c3581600087878787611d02565b5050505050565b60606000600167ffffffffffffffff811115611c81577f4e487b7100000000000000000000000000000000000000000000000000000000600052604160045260246000fd5b604051908082528060200260200182016040528015611caf5781602001602082028036833780820191505090505b5090508281600081518110611ced577f4e487b7100000000000000000000000000000000000000000000000000000000600052603260045260246000fd5b60200260200101818152505080915050919050565b611d218473ffffffffffffffffffffffffffffffffffffffff16611ee9565b15611ee1578373ffffffffffffffffffffffffffffffffffffffff1663f23a6e6187878686866040518663ffffffff1660e01b8152600401611d67959493929190612b3b565b602060405180830381600087803b158015611d8157600080fd5b505af1925050508015611db257506040513d601f19601f82011682018060405250810190611daf9190612628565b60015b611e5857611dbe613246565b806308c379a01415611e1b5750611dd3613689565b80611dde5750611e1d565b806040517f08c379a0000000000000000000000000000000000000000000000000000000008152600401611e129190612c24565b60405180910390fd5b505b6040517f08c379a0000000000000000000000000000000000000000000000000000000008152600401611e4f90612c46565b60405180910390fd5b63f23a6e6160e01b7bffffffffffffffffffffffffffffffffffffffffffffffffffffffff1916817bffffffffffffffffffffffffffffffffffffffffffffffffffffffff191614611edf576040517f08c379a0000000000000000000000000000000000000000000000000000000008152600401611ed690612c66565b60405180910390fd5b505b505050505050565b600080823b905060008111915050919050565b6000611f0f611f0a84612e8d565b612e68565b90508083825260208201905082856020860282011115611f2e57600080fd5b60005b85811015611f5e5781611f448882612050565b845260208401935060208301925050600181019050611f31565b5050509392505050565b6000611f7b611f7684612eb9565b612e68565b90508083825260208201905082856020860282011115611f9a57600080fd5b60005b85811015611fca5781611fb088826121f5565b845260208401935060208301925050600181019050611f9d565b5050509392505050565b6000611fe7611fe284612ee5565b612e68565b905082815260208101848484011115611fff57600080fd5b61200a8482856130cb565b509392505050565b600061202561202084612f16565b612e68565b90508281526020810184848401111561203d57600080fd5b6120488482856130cb565b509392505050565b60008135905061205f8161371f565b92915050565b600082601f83011261207657600080fd5b8135612086848260208601611efc565b91505092915050565b60008083601f8401126120a157600080fd5b8235905067ffffffffffffffff8111156120ba57600080fd5b6020830191508360208202830111156120d257600080fd5b9250929050565b600082601f8301126120ea57600080fd5b81356120fa848260208601611f68565b91505092915050565b60008135905061211281613736565b92915050565b6000813590506121278161374d565b92915050565b60008135905061213c81613764565b92915050565b60008151905061215181613764565b92915050565b60008083601f84011261216957600080fd5b8235905067ffffffffffffffff81111561218257600080fd5b60208301915083600182028301111561219a57600080fd5b9250929050565b600082601f8301126121b257600080fd5b81356121c2848260208601611fd4565b91505092915050565b600082601f8301126121dc57600080fd5b81356121ec848260208601612012565b91505092915050565b6000813590506122048161377b565b92915050565b6000806040838503121561221d57600080fd5b600061222b85828601612050565b925050602061223c85828601612050565b9150509250929050565b60008060008060008060008060a0898b03121561226257600080fd5b60006122708b828c01612050565b98505060206122818b828c01612050565b975050604089013567ffffffffffffffff81111561229e57600080fd5b6122aa8b828c0161208f565b9650965050606089013567ffffffffffffffff8111156122c957600080fd5b6122d58b828c0161208f565b9450945050608089013567ffffffffffffffff8111156122f457600080fd5b6123008b828c01612157565b92509250509295985092959890939650565b600080600080600060a0868803121561232a57600080fd5b600061233888828901612050565b955050602061234988828901612050565b945050604086013567ffffffffffffffff81111561236657600080fd5b612372888289016120d9565b935050606086013567ffffffffffffffff81111561238f57600080fd5b61239b888289016120d9565b925050608086013567ffffffffffffffff8111156123b857600080fd5b6123c4888289016121a1565b9150509295509295909350565b60008060008060008060a087890312156123ea57600080fd5b60006123f889828a01612050565b965050602061240989828a01612050565b955050604061241a89828a016121f5565b945050606061242b89828a016121f5565b935050608087013567ffffffffffffffff81111561244857600080fd5b61245489828a01612157565b92509250509295509295509295565b600080600080600060a0868803121561247b57600080fd5b600061248988828901612050565b955050602061249a88828901612050565b94505060406124ab888289016121f5565b93505060606124bc888289016121f5565b925050608086013567ffffffffffffffff8111156124d957600080fd5b6124e5888289016121a1565b9150509295509295909350565b6000806040838503121561250557600080fd5b600061251385828601612050565b925050602061252485828601612103565b9150509250929050565b6000806040838503121561254157600080fd5b600061254f85828601612050565b9250506020612560858286016121f5565b9150509250929050565b6000806040838503121561257d57600080fd5b600083013567ffffffffffffffff81111561259757600080fd5b6125a385828601612065565b925050602083013567ffffffffffffffff8111156125c057600080fd5b6125cc858286016120d9565b9150509250929050565b6000602082840312156125e857600080fd5b60006125f684828501612118565b91505092915050565b60006020828403121561261157600080fd5b600061261f8482850161212d565b91505092915050565b60006020828403121561263a57600080fd5b600061264884828501612142565b91505092915050565b60006020828403121561266357600080fd5b600082013567ffffffffffffffff81111561267d57600080fd5b612689848285016121cb565b91505092915050565b600080604083850312156126a557600080fd5b600083013567ffffffffffffffff8111156126bf57600080fd5b6126cb858286016121cb565b92505060206126dc858286016121f5565b9150509250929050565b6000602082840312156126f857600080fd5b6000612706848285016121f5565b91505092915050565b60008060006060848603121561272457600080fd5b6000612732868287016121f5565b935050602084013567ffffffffffffffff81111561274f57600080fd5b61275b868287016121cb565b925050604061276c868287016121f5565b9150509250925092565b60006127828383612a83565b60208301905092915050565b6127978161304d565b82525050565b60006127a882612f57565b6127b28185612f85565b93506127bd83612f47565b8060005b838110156127ee5781516127d58882612776565b97506127e083612f78565b9250506001810190506127c1565b5085935050505092915050565b6128048161305f565b82525050565b61281381613075565b82525050565b600061282482612f62565b61282e8185612f96565b935061283e8185602086016130da565b61284781613268565b840191505092915050565b600061285d82612f6d565b6128678185612fa7565b93506128778185602086016130da565b61288081613268565b840191505092915050565b600061289682612f6d565b6128a08185612fb8565b93506128b08185602086016130da565b80840191505092915050565b60006128c9603483612fa7565b91506128d482613286565b604082019050919050565b60006128ec602883612fa7565b91506128f7826132d5565b604082019050919050565b600061290f602b83612fa7565b915061291a82613324565b604082019050919050565b6000612932602483612fa7565b915061293d82613373565b604082019050919050565b6000612955602983612fa7565b9150612960826133c2565b604082019050919050565b6000612978602583612fa7565b915061298382613411565b604082019050919050565b600061299b603283612fa7565b91506129a682613460565b604082019050919050565b60006129be602383612fa7565b91506129c9826134af565b604082019050919050565b60006129e1602a83612fa7565b91506129ec826134fe565b604082019050919050565b6000612a04602983612fa7565b9150612a0f8261354d565b604082019050919050565b6000612a27602983612fa7565b9150612a328261359c565b604082019050919050565b6000612a4a602883612fa7565b9150612a55826135eb565b604082019050919050565b6000612a6d602183612fa7565b9150612a788261363a565b604082019050919050565b612a8c816130c1565b82525050565b612a9b816130c1565b82525050565b6000612aad828461288b565b915081905092915050565b6000602082019050612acd600083018461278e565b92915050565b600060a082019050612ae8600083018861278e565b612af5602083018761278e565b8181036040830152612b07818661279d565b90508181036060830152612b1b818561279d565b90508181036080830152612b2f8184612819565b90509695505050505050565b600060a082019050612b50600083018861278e565b612b5d602083018761278e565b612b6a6040830186612a92565b612b776060830185612a92565b8181036080830152612b898184612819565b90509695505050505050565b60006020820190508181036000830152612baf818461279d565b905092915050565b60006040820190508181036000830152612bd1818561279d565b90508181036020830152612be5818461279d565b90509392505050565b6000602082019050612c0360008301846127fb565b92915050565b6000602082019050612c1e600083018461280a565b92915050565b60006020820190508181036000830152612c3e8184612852565b905092915050565b60006020820190508181036000830152612c5f816128bc565b9050919050565b60006020820190508181036000830152612c7f816128df565b9050919050565b60006020820190508181036000830152612c9f81612902565b9050919050565b60006020820190508181036000830152612cbf81612925565b9050919050565b60006020820190508181036000830152612cdf81612948565b9050919050565b60006020820190508181036000830152612cff8161296b565b9050919050565b60006020820190508181036000830152612d1f8161298e565b9050919050565b60006020820190508181036000830152612d3f816129b1565b9050919050565b60006020820190508181036000830152612d5f816129d4565b9050919050565b60006020820190508181036000830152612d7f816129f7565b9050919050565b60006020820190508181036000830152612d9f81612a1a565b9050919050565b60006020820190508181036000830152612dbf81612a3d565b9050919050565b60006020820190508181036000830152612ddf81612a60565b9050919050565b6000602082019050612dfb6000830184612a92565b92915050565b6000606082019050612e166000830186612a92565b8181036020830152612e288185612852565b9050612e376040830184612a92565b949350505050565b6000604082019050612e546000830185612a92565b612e616020830184612a92565b9392505050565b6000612e72612e83565b9050612e7e828261313f565b919050565b6000604051905090565b600067ffffffffffffffff821115612ea857612ea7613217565b5b602082029050602081019050919050565b600067ffffffffffffffff821115612ed457612ed3613217565b5b602082029050602081019050919050565b600067ffffffffffffffff821115612f0057612eff613217565b5b612f0982613268565b9050602081019050919050565b600067ffffffffffffffff821115612f3157612f30613217565b5b612f3a82613268565b9050602081019050919050565b6000819050602082019050919050565b600081519050919050565b600081519050919050565b600081519050919050565b6000602082019050919050565b600082825260208201905092915050565b600082825260208201905092915050565b600082825260208201905092915050565b600081905092915050565b6000612fce826130c1565b9150612fd9836130c1565b9250827fffffffffffffffffffffffffffffffffffffffffffffffffffffffffffffffff0382111561300e5761300d6131b9565b5b828201905092915050565b6000613024826130c1565b915061302f836130c1565b925082821015613042576130416131b9565b5b828203905092915050565b6000613058826130a1565b9050919050565b60008115159050919050565b6000819050919050565b60007fffffffff0000000000000000000000000000000000000000000000000000000082169050919050565b600073ffffffffffffffffffffffffffffffffffffffff82169050919050565b6000819050919050565b82818337600083830152505050565b60005b838110156130f85780820151818401526020810190506130dd565b83811115613107576000848401525b50505050565b6000600282049050600182168061312557607f821691505b60208210811415613139576131386131e8565b5b50919050565b61314882613268565b810181811067ffffffffffffffff8211171561316757613166613217565b5b80604052505050565b600061317b826130c1565b91507fffffffffffffffffffffffffffffffffffffffffffffffffffffffffffffffff8214156131ae576131ad6131b9565b5b600182019050919050565b7f4e487b7100000000000000000000000000000000000000000000000000000000600052601160045260246000fd5b7f4e487b7100000000000000000000000000000000000000000000000000000000600052602260045260246000fd5b7f4e487b7100000000000000000000000000000000000000000000000000000000600052604160045260246000fd5b600060033d11156132655760046000803e613262600051613279565b90505b90565b6000601f19601f8301169050919050565b60008160e01c9050919050565b7f455243313135353a207472616e7366657220746f206e6f6e204552433131353560008201527f526563656976657220696d706c656d656e746572000000000000000000000000602082015250565b7f455243313135353a204552433131353552656365697665722072656a6563746560008201527f6420746f6b656e73000000000000000000000000000000000000000000000000602082015250565b7f455243313135353a2062616c616e636520717565727920666f7220746865207a60008201527f65726f2061646472657373000000000000000000000000000000000000000000602082015250565b7f455243313135353a206275726e20616d6f756e7420657863656564732062616c60008201527f616e636500000000000000000000000000000000000000000000000000000000602082015250565b7f455243313135353a2063616c6c6572206973206e6f74206f776e6572206e6f7260008201527f20617070726f7665640000000000000000000000000000000000000000000000602082015250565b7f455243313135353a207472616e7366657220746f20746865207a65726f20616460008201527f6472657373000000000000000000000000000000000000000000000000000000602082015250565b7f455243313135353a207472616e736665722063616c6c6572206973206e6f742060008201527f6f776e6572206e6f7220617070726f7665640000000000000000000000000000602082015250565b7f455243313135353a206275726e2066726f6d20746865207a65726f206164647260008201527f6573730000000000000000000000000000000000000000000000000000000000602082015250565b7f455243313135353a20696e73756666696369656e742062616c616e636520666f60008201527f72207472616e7366657200000000000000000000000000000000000000000000602082015250565b7f455243313135353a2073657474696e6720617070726f76616c2073746174757360008201527f20666f722073656c660000000000000000000000000000000000000000000000602082015250565b7f455243313135353a206163636f756e747320616e6420696473206c656e67746860008201527f206d69736d617463680000000000000000000000000000000000000000000000602082015250565b7f455243313135353a2069647320616e6420616d6f756e7473206c656e6774682060008201527f6d69736d61746368000000000000000000000000000000000000000000000000602082015250565b7f455243313135353a206d696e7420746f20746865207a65726f2061646472657360008201527f7300000000000000000000000000000000000000000000000000000000000000602082015250565b600060443d10156136995761371c565b6136a1612e83565b60043d036004823e80513d602482011167ffffffffffffffff821117156136c957505061371c565b808201805167ffffffffffffffff8111156136e7575050505061371c565b80602083010160043d03850181111561370457505050505061371c565b6137138260200185018661313f565b82955050505050505b90565b6137288161304d565b811461373357600080fd5b50565b61373f8161305f565b811461374a57600080fd5b50565b6137568161306b565b811461376157600080fd5b50565b61376d81613075565b811461377857600080fd5b50565b613784816130c1565b811461378f57600080fd5b5056fea264697066735822122094245c19e42a6f2ebbeda9d3345eef24991ecaea6e87ea31b952adb314991a2764736f6c63430008040033",
  "immutableReferences": {},
  "source": "// SPDX-License-Identifier: MIT\r\npragma solidity ^0.8.0;\r\n\r\nimport \"@openzeppelin/contracts/token/ERC1155/ERC1155.sol\";\r\nimport \"@openzeppelin/contracts/token/ERC1155/IERC1155Receiver.sol\";\r\n\r\n// Chainlink random number haven't implemented because of some limitations.\r\ncontract Avatars is ERC1155, IERC1155Receiver {\r\n    uint256 public totalTokens = 0;\r\n    bytes32 internal keyHash;\r\n    uint256 internal fee;\r\n    uint256 public avatarCreationFee;\r\n    uint256 public attachmentCreationFee;\r\n\r\n    string[] public attachments = [\r\n        \"accessories\", \r\n        \"accessoriesColor\", \r\n        \"clotheGraphics\", \r\n        \"clothes\", \r\n        \"clothesColor\", \r\n        \"eyebrow\", \r\n        \"eyes\", \r\n        \"facialHair\", \r\n        \"facialHairColor\", \r\n        \"hairColor\", \r\n        \"hatColor\", \r\n        \"mouth\", \r\n        \"skin\", \r\n        \"top\"\r\n    ];\r\n\r\n    uint[] public totalAttachments = [6, 18, 10, 12, 18, 18, 14, 10, 12, 12, 18, 12, 7, 37];\r\n\r\n    mapping(bytes32 => uint) public requestToToken; //request ID to token ID\r\n    mapping(bytes32 => address) public requestToOwner; //request ID to token ID\r\n    mapping(string => uint) public attachmentStartId;\r\n\r\n    event AvatarCreated(address indexed owner, uint avatarId);\r\n    event AttachmentAdded(address indexed updater, uint avatarId, string attachmentName, uint attachmentId);\r\n    event AttachmentRemoved(address indexed updater, uint avatarId, string attachmentName, uint attachmentId);\r\n\r\n    constructor() \r\n    ERC1155(\"\") {\r\n        for(uint i; i < attachments.length; i++){\r\n            string memory attachmentName = attachments[i];\r\n            attachmentStartId[attachmentName] = totalTokens;\r\n            totalTokens += totalAttachments[i];\r\n        }\r\n    }\r\n\r\n    function createAvatar() public {\r\n        uint tokenId = totalTokens;\r\n        _mint(_msgSender(), tokenId, 1, \"\");\r\n        emit AvatarCreated(_msgSender(), tokenId);\r\n        totalTokens++;\r\n    }\r\n\r\n    /**\r\n     * Function for updating the avatar.\r\n     * attachmentId will be enum from the attachment enum.\r\n     * todo: This isn't non-custodial figure out a way to make it non-custodial\r\n     * Some custom modification to ERC1155 may help.\r\n     * NFTs won't get locked on contract forever since owner can remove attachment anytime.\r\n     */\r\n    function addAttachment(uint avatarId, string memory attachmentName, uint attachmentId) external {\r\n        uint tokenId = attachmentStartId[attachmentName] + attachmentId;\r\n        safeTransferFrom(_msgSender(), address(this), tokenId, 1, \"\");\r\n        emit AttachmentAdded(_msgSender(), avatarId, attachmentName, tokenId);\r\n    }\r\n\r\n    function removeAttachment(uint avatarId, string memory attachmentName, uint attachmentId) external {\r\n        uint tokenId = attachmentStartId[attachmentName] + attachmentId;\r\n        safeTransferFrom(address(this), _msgSender(), tokenId, 1, \"\");\r\n        emit AttachmentRemoved(_msgSender(), avatarId, attachmentName, tokenId);\r\n    }\r\n\r\n    function buyAttachment(string memory attachmentName, uint attachmentId) external {\r\n        uint tokenId = attachmentStartId[attachmentName] + attachmentId;\r\n        _mint(_msgSender(), tokenId, 1, \"\");\r\n    }\r\n\r\n    function sellAttachment(string memory attachmentName, uint attachmentId) external {\r\n        uint tokenId = attachmentStartId[attachmentName] + attachmentId;\r\n        _burn(_msgSender(), tokenId, 1);\r\n    }\r\n\r\n    function onERC1155Received(\r\n        address operator,\r\n        address from,\r\n        uint256 id,\r\n        uint256 value,\r\n        bytes calldata data\r\n    )\r\n    external\r\n    override\r\n    returns(bytes4){\r\n        return bytes4(keccak256(\"onERC1155Received(address,address,uint256,uint256,bytes)\"));\r\n    }\r\n\r\n    function onERC1155BatchReceived(\r\n        address operator,\r\n        address from,\r\n        uint256[] calldata ids,\r\n        uint256[] calldata values,\r\n        bytes calldata data\r\n    )\r\n    external\r\n    override\r\n    returns(bytes4){\r\n        return bytes4(keccak256(\"onERC1155BatchReceived(address,address,uint256[],uint256[],bytes)\"));\r\n    }\r\n}",
  "sourcePath": "C:/Users/Root/Documents/my_ethereum/NFT-Avatars/truffle/contracts/Avatars.sol",
  "compiler": {
    "name": "solc",
    "version": "0.8.4+commit.c7e474f2.Emscripten.clang"
  },
  "schemaVersion": "3.3.3",
  "updatedAt": "2021-05-17T18:06:36.868Z",
  "devdoc": {
    "kind": "dev",
    "methods": {
      "balanceOf(address,uint256)": {
        "details": "See {IERC1155-balanceOf}. Requirements: - `account` cannot be the zero address."
      },
      "balanceOfBatch(address[],uint256[])": {
        "details": "See {IERC1155-balanceOfBatch}. Requirements: - `accounts` and `ids` must have the same length."
      },
      "isApprovedForAll(address,address)": {
        "details": "See {IERC1155-isApprovedForAll}."
      },
      "onERC1155BatchReceived(address,address,uint256[],uint256[],bytes)": {
        "details": "Handles the receipt of a multiple ERC1155 token types. This function is called at the end of a `safeBatchTransferFrom` after the balances have been updated. To accept the transfer(s), this must return `bytes4(keccak256(\"onERC1155BatchReceived(address,address,uint256[],uint256[],bytes)\"))` (i.e. 0xbc197c81, or its own function selector).",
        "params": {
          "data": "Additional data with no specified format",
          "from": "The address which previously owned the token",
          "ids": "An array containing ids of each token being transferred (order and length must match values array)",
          "operator": "The address which initiated the batch transfer (i.e. msg.sender)",
          "values": "An array containing amounts of each token being transferred (order and length must match ids array)"
        },
        "returns": {
          "_0": "`bytes4(keccak256(\"onERC1155BatchReceived(address,address,uint256[],uint256[],bytes)\"))` if transfer is allowed"
        }
      },
      "onERC1155Received(address,address,uint256,uint256,bytes)": {
        "details": "Handles the receipt of a single ERC1155 token type. This function is called at the end of a `safeTransferFrom` after the balance has been updated. To accept the transfer, this must return `bytes4(keccak256(\"onERC1155Received(address,address,uint256,uint256,bytes)\"))` (i.e. 0xf23a6e61, or its own function selector).",
        "params": {
          "data": "Additional data with no specified format",
          "from": "The address which previously owned the token",
          "id": "The ID of the token being transferred",
          "operator": "The address which initiated the transfer (i.e. msg.sender)",
          "value": "The amount of tokens being transferred"
        },
        "returns": {
          "_0": "`bytes4(keccak256(\"onERC1155Received(address,address,uint256,uint256,bytes)\"))` if transfer is allowed"
        }
      },
      "safeBatchTransferFrom(address,address,uint256[],uint256[],bytes)": {
        "details": "See {IERC1155-safeBatchTransferFrom}."
      },
      "safeTransferFrom(address,address,uint256,uint256,bytes)": {
        "details": "See {IERC1155-safeTransferFrom}."
      },
      "setApprovalForAll(address,bool)": {
        "details": "See {IERC1155-setApprovalForAll}."
      },
      "supportsInterface(bytes4)": {
        "details": "See {IERC165-supportsInterface}."
      },
      "uri(uint256)": {
        "details": "See {IERC1155MetadataURI-uri}. This implementation returns the same URI for *all* token types. It relies on the token type ID substitution mechanism https://eips.ethereum.org/EIPS/eip-1155#metadata[defined in the EIP]. Clients calling this function must replace the `\\{id\\}` substring with the actual token type ID."
      }
    },
    "version": 1
  },
  "userdoc": {
    "kind": "user",
    "methods": {
      "addAttachment(uint256,string,uint256)": {
        "notice": "Function for updating the avatar. attachmentId will be enum from the attachment enum. todo: This isn't non-custodial figure out a way to make it non-custodial Some custom modification to ERC1155 may help. NFTs won't get locked on contract forever since owner can remove attachment anytime."
      }
    },
    "version": 1
  }
}