{
  "contractName": "Tops",
  "abi": [
    {
      "inputs": [],
      "stateMutability": "nonpayable",
      "type": "constructor"
    },
    {
      "anonymous": false,
      "inputs": [
        {
          "indexed": true,
          "internalType": "address",
          "name": "account",
          "type": "address"
        },
        {
          "indexed": true,
          "internalType": "address",
          "name": "operator",
          "type": "address"
        },
        {
          "indexed": false,
          "internalType": "bool",
          "name": "approved",
          "type": "bool"
        }
      ],
      "name": "ApprovalForAll",
      "type": "event"
    },
    {
      "anonymous": false,
      "inputs": [
        {
          "indexed": true,
          "internalType": "address",
          "name": "previousOwner",
          "type": "address"
        },
        {
          "indexed": true,
          "internalType": "address",
          "name": "newOwner",
          "type": "address"
        }
      ],
      "name": "OwnershipTransferred",
      "type": "event"
    },
    {
      "anonymous": false,
      "inputs": [
        {
          "indexed": true,
          "internalType": "address",
          "name": "operator",
          "type": "address"
        },
        {
          "indexed": true,
          "internalType": "address",
          "name": "from",
          "type": "address"
        },
        {
          "indexed": true,
          "internalType": "address",
          "name": "to",
          "type": "address"
        },
        {
          "indexed": false,
          "internalType": "uint256[]",
          "name": "ids",
          "type": "uint256[]"
        },
        {
          "indexed": false,
          "internalType": "uint256[]",
          "name": "values",
          "type": "uint256[]"
        }
      ],
      "name": "TransferBatch",
      "type": "event"
    },
    {
      "anonymous": false,
      "inputs": [
        {
          "indexed": true,
          "internalType": "address",
          "name": "operator",
          "type": "address"
        },
        {
          "indexed": true,
          "internalType": "address",
          "name": "from",
          "type": "address"
        },
        {
          "indexed": true,
          "internalType": "address",
          "name": "to",
          "type": "address"
        },
        {
          "indexed": false,
          "internalType": "uint256",
          "name": "id",
          "type": "uint256"
        },
        {
          "indexed": false,
          "internalType": "uint256",
          "name": "value",
          "type": "uint256"
        }
      ],
      "name": "TransferSingle",
      "type": "event"
    },
    {
      "anonymous": false,
      "inputs": [
        {
          "indexed": false,
          "internalType": "string",
          "name": "value",
          "type": "string"
        },
        {
          "indexed": true,
          "internalType": "uint256",
          "name": "id",
          "type": "uint256"
        }
      ],
      "name": "URI",
      "type": "event"
    },
    {
      "inputs": [],
      "name": "addressBookAddress",
      "outputs": [
        {
          "internalType": "address",
          "name": "",
          "type": "address"
        }
      ],
      "stateMutability": "view",
      "type": "function",
      "constant": true
    },
    {
      "inputs": [
        {
          "internalType": "address",
          "name": "account",
          "type": "address"
        },
        {
          "internalType": "uint256",
          "name": "id",
          "type": "uint256"
        }
      ],
      "name": "balanceOf",
      "outputs": [
        {
          "internalType": "uint256",
          "name": "",
          "type": "uint256"
        }
      ],
      "stateMutability": "view",
      "type": "function",
      "constant": true
    },
    {
      "inputs": [
        {
          "internalType": "address[]",
          "name": "accounts",
          "type": "address[]"
        },
        {
          "internalType": "uint256[]",
          "name": "ids",
          "type": "uint256[]"
        }
      ],
      "name": "balanceOfBatch",
      "outputs": [
        {
          "internalType": "uint256[]",
          "name": "",
          "type": "uint256[]"
        }
      ],
      "stateMutability": "view",
      "type": "function",
      "constant": true
    },
    {
      "inputs": [
        {
          "internalType": "address",
          "name": "account",
          "type": "address"
        },
        {
          "internalType": "address",
          "name": "operator",
          "type": "address"
        }
      ],
      "name": "isApprovedForAll",
      "outputs": [
        {
          "internalType": "bool",
          "name": "",
          "type": "bool"
        }
      ],
      "stateMutability": "view",
      "type": "function",
      "constant": true
    },
    {
      "inputs": [],
      "name": "owner",
      "outputs": [
        {
          "internalType": "address",
          "name": "",
          "type": "address"
        }
      ],
      "stateMutability": "view",
      "type": "function",
      "constant": true
    },
    {
      "inputs": [],
      "name": "renounceOwnership",
      "outputs": [],
      "stateMutability": "nonpayable",
      "type": "function"
    },
    {
      "inputs": [
        {
          "internalType": "address",
          "name": "from",
          "type": "address"
        },
        {
          "internalType": "address",
          "name": "to",
          "type": "address"
        },
        {
          "internalType": "uint256[]",
          "name": "ids",
          "type": "uint256[]"
        },
        {
          "internalType": "uint256[]",
          "name": "amounts",
          "type": "uint256[]"
        },
        {
          "internalType": "bytes",
          "name": "data",
          "type": "bytes"
        }
      ],
      "name": "safeBatchTransferFrom",
      "outputs": [],
      "stateMutability": "nonpayable",
      "type": "function"
    },
    {
      "inputs": [
        {
          "internalType": "address",
          "name": "from",
          "type": "address"
        },
        {
          "internalType": "address",
          "name": "to",
          "type": "address"
        },
        {
          "internalType": "uint256",
          "name": "id",
          "type": "uint256"
        },
        {
          "internalType": "uint256",
          "name": "amount",
          "type": "uint256"
        },
        {
          "internalType": "bytes",
          "name": "data",
          "type": "bytes"
        }
      ],
      "name": "safeTransferFrom",
      "outputs": [],
      "stateMutability": "nonpayable",
      "type": "function"
    },
    {
      "inputs": [
        {
          "internalType": "address",
          "name": "operator",
          "type": "address"
        },
        {
          "internalType": "bool",
          "name": "approved",
          "type": "bool"
        }
      ],
      "name": "setApprovalForAll",
      "outputs": [],
      "stateMutability": "nonpayable",
      "type": "function"
    },
    {
      "inputs": [
        {
          "internalType": "bytes4",
          "name": "interfaceId",
          "type": "bytes4"
        }
      ],
      "name": "supportsInterface",
      "outputs": [
        {
          "internalType": "bool",
          "name": "",
          "type": "bool"
        }
      ],
      "stateMutability": "view",
      "type": "function",
      "constant": true
    },
    {
      "inputs": [
        {
          "internalType": "address",
          "name": "newOwner",
          "type": "address"
        }
      ],
      "name": "transferOwnership",
      "outputs": [],
      "stateMutability": "nonpayable",
      "type": "function"
    },
    {
      "inputs": [
        {
          "internalType": "uint256",
          "name": "",
          "type": "uint256"
        }
      ],
      "name": "uri",
      "outputs": [
        {
          "internalType": "string",
          "name": "",
          "type": "string"
        }
      ],
      "stateMutability": "view",
      "type": "function",
      "constant": true
    },
    {
      "inputs": [
        {
          "internalType": "enum Tops.TopType",
          "name": "top",
          "type": "uint8"
        },
        {
          "internalType": "uint256",
          "name": "amount",
          "type": "uint256"
        }
      ],
      "name": "buy",
      "outputs": [],
      "stateMutability": "nonpayable",
      "type": "function"
    },
    {
      "inputs": [
        {
          "internalType": "enum Tops.TopType[]",
          "name": "tops",
          "type": "uint8[]"
        },
        {
          "internalType": "uint256[]",
          "name": "amounts",
          "type": "uint256[]"
        }
      ],
      "name": "buyBatch",
      "outputs": [],
      "stateMutability": "nonpayable",
      "type": "function"
    }
  ],
  "bytecode": "0x60806040523480156200001157600080fd5b5060405180606001604052806028815260200162003519602891396200003d81620000f560201b60201c565b506000620000506200011160201b60201c565b905080600360006101000a81548173ffffffffffffffffffffffffffffffffffffffff021916908373ffffffffffffffffffffffffffffffffffffffff1602179055508073ffffffffffffffffffffffffffffffffffffffff16600073ffffffffffffffffffffffffffffffffffffffff167f8be0079c531659141344cd1fd0a4f28419497f9722a3daafe3b4186f6b6457e060405160405180910390a3506200022e565b80600290805190602001906200010d92919062000119565b5050565b600033905090565b8280546200012790620001c9565b90600052602060002090601f0160209004810192826200014b576000855562000197565b82601f106200016657805160ff191683800117855562000197565b8280016001018555821562000197579182015b828111156200019657825182559160200191906001019062000179565b5b509050620001a69190620001aa565b5090565b5b80821115620001c5576000816000905550600101620001ab565b5090565b60006002820490506001821680620001e257607f821691505b60208210811415620001f957620001f8620001ff565b5b50919050565b7f4e487b7100000000000000000000000000000000000000000000000000000000600052602260045260246000fd5b6132db806200023e6000396000f3fe608060405234801561001057600080fd5b50600436106100e95760003560e01c80638da5cb5b1161008c578063be2c351711610066578063be2c351714610246578063e985e9c514610264578063f242432a14610294578063f2fde38b146102b0576100e9565b80638da5cb5b146101f0578063a22cb4651461020e578063b3ccfca61461022a576100e9565b80632eb2c2d6116100c85780632eb2c2d61461017e5780634e1273f41461019a57806362f791c0146101ca578063715018a6146101e6576100e9565b8062fdd58e146100ee57806301ffc9a71461011e5780630e89341c1461014e575b600080fd5b61010860048036038101906101039190612279565b6102cc565b6040516101159190612d83565b60405180910390f35b6101386004803603810190610133919061238d565b610395565b6040516101459190612ba6565b60405180910390f35b6101686004803603810190610163919061241b565b610477565b6040516101759190612bc1565b60405180910390f35b610198600480360381019061019391906120ef565b61050b565b005b6101b460048036038101906101af91906122b5565b610901565b6040516101c19190612b4d565b60405180910390f35b6101e460048036038101906101df91906123df565b610ab2565b005b6101ee610b10565b005b6101f8610c4d565b6040516102059190612a70565b60405180910390f35b6102286004803603810190610223919061223d565b610c77565b005b610244600480360381019061023f9190612321565b610df8565b005b61024e610f71565b60405161025b9190612a70565b60405180910390f35b61027e600480360381019061027991906120b3565b610f97565b60405161028b9190612ba6565b60405180910390f35b6102ae60048036038101906102a991906121ae565b61102b565b005b6102ca60048036038101906102c5919061208a565b611343565b005b60008073ffffffffffffffffffffffffffffffffffffffff168373ffffffffffffffffffffffffffffffffffffffff16141561033d576040517f08c379a000000000000000000000000000000000000000000000000000000000815260040161033490612c23565b60405180910390fd5b60008083815260200190815260200160002060008473ffffffffffffffffffffffffffffffffffffffff1673ffffffffffffffffffffffffffffffffffffffff16815260200190815260200160002054905092915050565b60007fd9b67a26000000000000000000000000000000000000000000000000000000007bffffffffffffffffffffffffffffffffffffffffffffffffffffffff1916827bffffffffffffffffffffffffffffffffffffffffffffffffffffffff1916148061046057507f0e89341c000000000000000000000000000000000000000000000000000000007bffffffffffffffffffffffffffffffffffffffffffffffffffffffff1916827bffffffffffffffffffffffffffffffffffffffffffffffffffffffff1916145b80610470575061046f826114ef565b5b9050919050565b6060600280546104869061305d565b80601f01602080910402602001604051908101604052809291908181526020018280546104b29061305d565b80156104ff5780601f106104d4576101008083540402835291602001916104ff565b820191906000526020600020905b8154815290600101906020018083116104e257829003601f168201915b50505050509050919050565b815183511461054f576040517f08c379a000000000000000000000000000000000000000000000000000000000815260040161054690612d43565b60405180910390fd5b600073ffffffffffffffffffffffffffffffffffffffff168473ffffffffffffffffffffffffffffffffffffffff1614156105bf576040517f08c379a00000000000000000000000000000000000000000000000000000000081526004016105b690612c83565b60405180910390fd5b6105c7611559565b73ffffffffffffffffffffffffffffffffffffffff168573ffffffffffffffffffffffffffffffffffffffff16148061060d575061060c85610607611559565b610f97565b5b61064c576040517f08c379a000000000000000000000000000000000000000000000000000000000815260040161064390612ca3565b60405180910390fd5b6000610656611559565b9050610666818787878787611561565b60005b845181101561086c5760008582815181106106ad577f4e487b7100000000000000000000000000000000000000000000000000000000600052603260045260246000fd5b6020026020010151905060008583815181106106f2577f4e487b7100000000000000000000000000000000000000000000000000000000600052603260045260246000fd5b60200260200101519050600080600084815260200190815260200160002060008b73ffffffffffffffffffffffffffffffffffffffff1673ffffffffffffffffffffffffffffffffffffffff16815260200190815260200160002054905081811015610793576040517f08c379a000000000000000000000000000000000000000000000000000000000815260040161078a90612cc3565b60405180910390fd5b818161079f9190612f73565b60008085815260200190815260200160002060008c73ffffffffffffffffffffffffffffffffffffffff1673ffffffffffffffffffffffffffffffffffffffff168152602001908152602001600020819055508160008085815260200190815260200160002060008b73ffffffffffffffffffffffffffffffffffffffff1673ffffffffffffffffffffffffffffffffffffffff16815260200190815260200160002060008282546108519190612f1d565b92505081905550505050806108659061308f565b9050610669565b508473ffffffffffffffffffffffffffffffffffffffff168673ffffffffffffffffffffffffffffffffffffffff168273ffffffffffffffffffffffffffffffffffffffff167f4a39dc06d4c0dbc64b70af90fd698a233a518aa5d07e595d983b8c0526c8f7fb87876040516108e3929190612b6f565b60405180910390a46108f9818787878787611569565b505050505050565b60608151835114610947576040517f08c379a000000000000000000000000000000000000000000000000000000000815260040161093e90612d23565b60405180910390fd5b6000835167ffffffffffffffff81111561098a577f4e487b7100000000000000000000000000000000000000000000000000000000600052604160045260246000fd5b6040519080825280602002602001820160405280156109b85781602001602082028036833780820191505090505b50905060005b8451811015610aa757610a51858281518110610a03577f4e487b7100000000000000000000000000000000000000000000000000000000600052603260045260246000fd5b6020026020010151858381518110610a44577f4e487b7100000000000000000000000000000000000000000000000000000000600052603260045260246000fd5b60200260200101516102cc565b828281518110610a8a577f4e487b7100000000000000000000000000000000000000000000000000000000600052603260045260246000fd5b60200260200101818152505080610aa09061308f565b90506109be565b508091505092915050565b610b0c610abd611559565b836024811115610af6577f4e487b7100000000000000000000000000000000000000000000000000000000600052602160045260246000fd5b8360405180602001604052806000815250611739565b5050565b610b18611559565b73ffffffffffffffffffffffffffffffffffffffff16610b36610c4d565b73ffffffffffffffffffffffffffffffffffffffff1614610b8c576040517f08c379a0000000000000000000000000000000000000000000000000000000008152600401610b8390612ce3565b60405180910390fd5b600073ffffffffffffffffffffffffffffffffffffffff16600360009054906101000a900473ffffffffffffffffffffffffffffffffffffffff1673ffffffffffffffffffffffffffffffffffffffff167f8be0079c531659141344cd1fd0a4f28419497f9722a3daafe3b4186f6b6457e060405160405180910390a36000600360006101000a81548173ffffffffffffffffffffffffffffffffffffffff021916908373ffffffffffffffffffffffffffffffffffffffff160217905550565b6000600360009054906101000a900473ffffffffffffffffffffffffffffffffffffffff16905090565b8173ffffffffffffffffffffffffffffffffffffffff16610c96611559565b73ffffffffffffffffffffffffffffffffffffffff161415610ced576040517f08c379a0000000000000000000000000000000000000000000000000000000008152600401610ce490612d03565b60405180910390fd5b8060016000610cfa611559565b73ffffffffffffffffffffffffffffffffffffffff1673ffffffffffffffffffffffffffffffffffffffff16815260200190815260200160002060008473ffffffffffffffffffffffffffffffffffffffff1673ffffffffffffffffffffffffffffffffffffffff16815260200190815260200160002060006101000a81548160ff0219169083151502179055508173ffffffffffffffffffffffffffffffffffffffff16610da7611559565b73ffffffffffffffffffffffffffffffffffffffff167f17307eab39ab6107e8899845ad3d59bd9653f200f220920489ca2b5937696c3183604051610dec9190612ba6565b60405180910390a35050565b6000825167ffffffffffffffff811115610e3b577f4e487b7100000000000000000000000000000000000000000000000000000000600052604160045260246000fd5b604051908082528060200260200182016040528015610e695781602001602082028036833780820191505090505b50905060005b8351811015610f4957838181518110610eb1577f4e487b7100000000000000000000000000000000000000000000000000000000600052603260045260246000fd5b60200260200101516024811115610ef1577f4e487b7100000000000000000000000000000000000000000000000000000000600052602160045260246000fd5b828281518110610f2a577f4e487b7100000000000000000000000000000000000000000000000000000000600052603260045260246000fd5b6020026020010181815250508080610f419061308f565b915050610e6f565b50610f6c610f55611559565b8284604051806020016040528060008152506118cf565b505050565b600460009054906101000a900473ffffffffffffffffffffffffffffffffffffffff1681565b6000600160008473ffffffffffffffffffffffffffffffffffffffff1673ffffffffffffffffffffffffffffffffffffffff16815260200190815260200160002060008373ffffffffffffffffffffffffffffffffffffffff1673ffffffffffffffffffffffffffffffffffffffff16815260200190815260200160002060009054906101000a900460ff16905092915050565b600073ffffffffffffffffffffffffffffffffffffffff168473ffffffffffffffffffffffffffffffffffffffff16141561109b576040517f08c379a000000000000000000000000000000000000000000000000000000000815260040161109290612c83565b60405180910390fd5b6110a3611559565b73ffffffffffffffffffffffffffffffffffffffff168573ffffffffffffffffffffffffffffffffffffffff1614806110e957506110e8856110e3611559565b610f97565b5b611128576040517f08c379a000000000000000000000000000000000000000000000000000000000815260040161111f90612c63565b60405180910390fd5b6000611132611559565b905061115281878761114388611b39565b61114c88611b39565b87611561565b600080600086815260200190815260200160002060008873ffffffffffffffffffffffffffffffffffffffff1673ffffffffffffffffffffffffffffffffffffffff168152602001908152602001600020549050838110156111e9576040517f08c379a00000000000000000000000000000000000000000000000000000000081526004016111e090612cc3565b60405180910390fd5b83816111f59190612f73565b60008087815260200190815260200160002060008973ffffffffffffffffffffffffffffffffffffffff1673ffffffffffffffffffffffffffffffffffffffff168152602001908152602001600020819055508360008087815260200190815260200160002060008873ffffffffffffffffffffffffffffffffffffffff1673ffffffffffffffffffffffffffffffffffffffff16815260200190815260200160002060008282546112a79190612f1d565b925050819055508573ffffffffffffffffffffffffffffffffffffffff168773ffffffffffffffffffffffffffffffffffffffff168373ffffffffffffffffffffffffffffffffffffffff167fc3d58168c5ae7397731d063d5bbf3d657854427343f4c083240f7aacaa2d0f628888604051611324929190612d9e565b60405180910390a461133a828888888888611bff565b50505050505050565b61134b611559565b73ffffffffffffffffffffffffffffffffffffffff16611369610c4d565b73ffffffffffffffffffffffffffffffffffffffff16146113bf576040517f08c379a00000000000000000000000000000000000000000000000000000000081526004016113b690612ce3565b60405180910390fd5b600073ffffffffffffffffffffffffffffffffffffffff168173ffffffffffffffffffffffffffffffffffffffff16141561142f576040517f08c379a000000000000000000000000000000000000000000000000000000000815260040161142690612c43565b60405180910390fd5b8073ffffffffffffffffffffffffffffffffffffffff16600360009054906101000a900473ffffffffffffffffffffffffffffffffffffffff1673ffffffffffffffffffffffffffffffffffffffff167f8be0079c531659141344cd1fd0a4f28419497f9722a3daafe3b4186f6b6457e060405160405180910390a380600360006101000a81548173ffffffffffffffffffffffffffffffffffffffff021916908373ffffffffffffffffffffffffffffffffffffffff16021790555050565b60007f01ffc9a7000000000000000000000000000000000000000000000000000000007bffffffffffffffffffffffffffffffffffffffffffffffffffffffff1916827bffffffffffffffffffffffffffffffffffffffffffffffffffffffff1916149050919050565b600033905090565b505050505050565b6115888473ffffffffffffffffffffffffffffffffffffffff16611dcf565b15611731578373ffffffffffffffffffffffffffffffffffffffff1663bc197c8187878686866040518663ffffffff1660e01b81526004016115ce959493929190612a8b565b602060405180830381600087803b1580156115e857600080fd5b505af192505050801561161957506040513d601f19601f8201168201806040525081019061161691906123b6565b60015b6116a857611625613183565b80611630575061166d565b806040517f08c379a00000000000000000000000000000000000000000000000000000000081526004016116649190612bc1565b60405180910390fd5b6040517f08c379a000000000000000000000000000000000000000000000000000000000815260040161169f90612be3565b60405180910390fd5b63bc197c8160e01b7bffffffffffffffffffffffffffffffffffffffffffffffffffffffff1916817bffffffffffffffffffffffffffffffffffffffffffffffffffffffff19161461172f576040517f08c379a000000000000000000000000000000000000000000000000000000000815260040161172690612c03565b60405180910390fd5b505b505050505050565b600073ffffffffffffffffffffffffffffffffffffffff168473ffffffffffffffffffffffffffffffffffffffff1614156117a9576040517f08c379a00000000000000000000000000000000000000000000000000000000081526004016117a090612d63565b60405180910390fd5b60006117b3611559565b90506117d4816000876117c588611b39565b6117ce88611b39565b87611561565b8260008086815260200190815260200160002060008773ffffffffffffffffffffffffffffffffffffffff1673ffffffffffffffffffffffffffffffffffffffff16815260200190815260200160002060008282546118339190612f1d565b925050819055508473ffffffffffffffffffffffffffffffffffffffff16600073ffffffffffffffffffffffffffffffffffffffff168273ffffffffffffffffffffffffffffffffffffffff167fc3d58168c5ae7397731d063d5bbf3d657854427343f4c083240f7aacaa2d0f6287876040516118b1929190612d9e565b60405180910390a46118c881600087878787611bff565b5050505050565b600073ffffffffffffffffffffffffffffffffffffffff168473ffffffffffffffffffffffffffffffffffffffff16141561193f576040517f08c379a000000000000000000000000000000000000000000000000000000000815260040161193690612d63565b60405180910390fd5b8151835114611983576040517f08c379a000000000000000000000000000000000000000000000000000000000815260040161197a90612d43565b60405180910390fd5b600061198d611559565b905061199e81600087878787611561565b60005b8451811015611aa3578381815181106119e3577f4e487b7100000000000000000000000000000000000000000000000000000000600052603260045260246000fd5b6020026020010151600080878481518110611a27577f4e487b7100000000000000000000000000000000000000000000000000000000600052603260045260246000fd5b6020026020010151815260200190815260200160002060008873ffffffffffffffffffffffffffffffffffffffff1673ffffffffffffffffffffffffffffffffffffffff1681526020019081526020016000206000828254611a899190612f1d565b925050819055508080611a9b9061308f565b9150506119a1565b508473ffffffffffffffffffffffffffffffffffffffff16600073ffffffffffffffffffffffffffffffffffffffff168273ffffffffffffffffffffffffffffffffffffffff167f4a39dc06d4c0dbc64b70af90fd698a233a518aa5d07e595d983b8c0526c8f7fb8787604051611b1b929190612b6f565b60405180910390a4611b3281600087878787611569565b5050505050565b60606000600167ffffffffffffffff811115611b7e577f4e487b7100000000000000000000000000000000000000000000000000000000600052604160045260246000fd5b604051908082528060200260200182016040528015611bac5781602001602082028036833780820191505090505b5090508281600081518110611bea577f4e487b7100000000000000000000000000000000000000000000000000000000600052603260045260246000fd5b60200260200101818152505080915050919050565b611c1e8473ffffffffffffffffffffffffffffffffffffffff16611dcf565b15611dc7578373ffffffffffffffffffffffffffffffffffffffff1663f23a6e6187878686866040518663ffffffff1660e01b8152600401611c64959493929190612af3565b602060405180830381600087803b158015611c7e57600080fd5b505af1925050508015611caf57506040513d601f19601f82011682018060405250810190611cac91906123b6565b60015b611d3e57611cbb613183565b80611cc65750611d03565b806040517f08c379a0000000000000000000000000000000000000000000000000000000008152600401611cfa9190612bc1565b60405180910390fd5b6040517f08c379a0000000000000000000000000000000000000000000000000000000008152600401611d3590612be3565b60405180910390fd5b63f23a6e6160e01b7bffffffffffffffffffffffffffffffffffffffffffffffffffffffff1916817bffffffffffffffffffffffffffffffffffffffffffffffffffffffff191614611dc5576040517f08c379a0000000000000000000000000000000000000000000000000000000008152600401611dbc90612c03565b60405180910390fd5b505b505050505050565b600080823b905060008111915050919050565b6000611df5611df084612df8565b612dc7565b90508083825260208201905082856020860282011115611e1457600080fd5b60005b85811015611e445781611e2a8882611f64565b845260208401935060208301925050600181019050611e17565b5050509392505050565b6000611e61611e5c84612e24565b612dc7565b90508083825260208201905082856020860282011115611e8057600080fd5b60005b85811015611eb05781611e968882612060565b845260208401935060208301925050600181019050611e83565b5050509392505050565b6000611ecd611ec884612e50565b612dc7565b90508083825260208201905082856020860282011115611eec57600080fd5b60005b85811015611f1c5781611f028882612075565b845260208401935060208301925050600181019050611eef565b5050509392505050565b6000611f39611f3484612e7c565b612dc7565b905082815260208101848484011115611f5157600080fd5b611f5c84828561301b565b509392505050565b600081359050611f7381613239565b92915050565b600082601f830112611f8a57600080fd5b8135611f9a848260208601611de2565b91505092915050565b600082601f830112611fb457600080fd5b8135611fc4848260208601611e4e565b91505092915050565b600082601f830112611fde57600080fd5b8135611fee848260208601611eba565b91505092915050565b60008135905061200681613250565b92915050565b60008135905061201b81613267565b92915050565b60008151905061203081613267565b92915050565b600082601f83011261204757600080fd5b8135612057848260208601611f26565b91505092915050565b60008135905061206f8161327e565b92915050565b6000813590506120848161328e565b92915050565b60006020828403121561209c57600080fd5b60006120aa84828501611f64565b91505092915050565b600080604083850312156120c657600080fd5b60006120d485828601611f64565b92505060206120e585828601611f64565b9150509250929050565b600080600080600060a0868803121561210757600080fd5b600061211588828901611f64565b955050602061212688828901611f64565b945050604086013567ffffffffffffffff81111561214357600080fd5b61214f88828901611fcd565b935050606086013567ffffffffffffffff81111561216c57600080fd5b61217888828901611fcd565b925050608086013567ffffffffffffffff81111561219557600080fd5b6121a188828901612036565b9150509295509295909350565b600080600080600060a086880312156121c657600080fd5b60006121d488828901611f64565b95505060206121e588828901611f64565b94505060406121f688828901612075565b935050606061220788828901612075565b925050608086013567ffffffffffffffff81111561222457600080fd5b61223088828901612036565b9150509295509295909350565b6000806040838503121561225057600080fd5b600061225e85828601611f64565b925050602061226f85828601611ff7565b9150509250929050565b6000806040838503121561228c57600080fd5b600061229a85828601611f64565b92505060206122ab85828601612075565b9150509250929050565b600080604083850312156122c857600080fd5b600083013567ffffffffffffffff8111156122e257600080fd5b6122ee85828601611f79565b925050602083013567ffffffffffffffff81111561230b57600080fd5b61231785828601611fcd565b9150509250929050565b6000806040838503121561233457600080fd5b600083013567ffffffffffffffff81111561234e57600080fd5b61235a85828601611fa3565b925050602083013567ffffffffffffffff81111561237757600080fd5b61238385828601611fcd565b9150509250929050565b60006020828403121561239f57600080fd5b60006123ad8482850161200c565b91505092915050565b6000602082840312156123c857600080fd5b60006123d684828501612021565b91505092915050565b600080604083850312156123f257600080fd5b600061240085828601612060565b925050602061241185828601612075565b9150509250929050565b60006020828403121561242d57600080fd5b600061243b84828501612075565b91505092915050565b60006124508383612a52565b60208301905092915050565b61246581612fa7565b82525050565b600061247682612ebc565b6124808185612eea565b935061248b83612eac565b8060005b838110156124bc5781516124a38882612444565b97506124ae83612edd565b92505060018101905061248f565b5085935050505092915050565b6124d281612fb9565b82525050565b60006124e382612ec7565b6124ed8185612efb565b93506124fd81856020860161302a565b61250681613165565b840191505092915050565b600061251c82612ed2565b6125268185612f0c565b935061253681856020860161302a565b61253f81613165565b840191505092915050565b6000612557603483612f0c565b91507f455243313135353a207472616e7366657220746f206e6f6e204552433131353560008301527f526563656976657220696d706c656d656e7465720000000000000000000000006020830152604082019050919050565b60006125bd602883612f0c565b91507f455243313135353a204552433131353552656365697665722072656a6563746560008301527f6420746f6b656e730000000000000000000000000000000000000000000000006020830152604082019050919050565b6000612623602b83612f0c565b91507f455243313135353a2062616c616e636520717565727920666f7220746865207a60008301527f65726f20616464726573730000000000000000000000000000000000000000006020830152604082019050919050565b6000612689602683612f0c565b91507f4f776e61626c653a206e6577206f776e657220697320746865207a65726f206160008301527f64647265737300000000000000000000000000000000000000000000000000006020830152604082019050919050565b60006126ef602983612f0c565b91507f455243313135353a2063616c6c6572206973206e6f74206f776e6572206e6f7260008301527f20617070726f76656400000000000000000000000000000000000000000000006020830152604082019050919050565b6000612755602583612f0c565b91507f455243313135353a207472616e7366657220746f20746865207a65726f20616460008301527f64726573730000000000000000000000000000000000000000000000000000006020830152604082019050919050565b60006127bb603283612f0c565b91507f455243313135353a207472616e736665722063616c6c6572206973206e6f742060008301527f6f776e6572206e6f7220617070726f76656400000000000000000000000000006020830152604082019050919050565b6000612821602a83612f0c565b91507f455243313135353a20696e73756666696369656e742062616c616e636520666f60008301527f72207472616e73666572000000000000000000000000000000000000000000006020830152604082019050919050565b6000612887602083612f0c565b91507f4f776e61626c653a2063616c6c6572206973206e6f7420746865206f776e65726000830152602082019050919050565b60006128c7602983612f0c565b91507f455243313135353a2073657474696e6720617070726f76616c2073746174757360008301527f20666f722073656c6600000000000000000000000000000000000000000000006020830152604082019050919050565b600061292d602983612f0c565b91507f455243313135353a206163636f756e747320616e6420696473206c656e67746860008301527f206d69736d6174636800000000000000000000000000000000000000000000006020830152604082019050919050565b6000612993602883612f0c565b91507f455243313135353a2069647320616e6420616d6f756e7473206c656e6774682060008301527f6d69736d617463680000000000000000000000000000000000000000000000006020830152604082019050919050565b60006129f9602183612f0c565b91507f455243313135353a206d696e7420746f20746865207a65726f2061646472657360008301527f73000000000000000000000000000000000000000000000000000000000000006020830152604082019050919050565b612a5b81613011565b82525050565b612a6a81613011565b82525050565b6000602082019050612a85600083018461245c565b92915050565b600060a082019050612aa0600083018861245c565b612aad602083018761245c565b8181036040830152612abf818661246b565b90508181036060830152612ad3818561246b565b90508181036080830152612ae781846124d8565b90509695505050505050565b600060a082019050612b08600083018861245c565b612b15602083018761245c565b612b226040830186612a61565b612b2f6060830185612a61565b8181036080830152612b4181846124d8565b90509695505050505050565b60006020820190508181036000830152612b67818461246b565b905092915050565b60006040820190508181036000830152612b89818561246b565b90508181036020830152612b9d818461246b565b90509392505050565b6000602082019050612bbb60008301846124c9565b92915050565b60006020820190508181036000830152612bdb8184612511565b905092915050565b60006020820190508181036000830152612bfc8161254a565b9050919050565b60006020820190508181036000830152612c1c816125b0565b9050919050565b60006020820190508181036000830152612c3c81612616565b9050919050565b60006020820190508181036000830152612c5c8161267c565b9050919050565b60006020820190508181036000830152612c7c816126e2565b9050919050565b60006020820190508181036000830152612c9c81612748565b9050919050565b60006020820190508181036000830152612cbc816127ae565b9050919050565b60006020820190508181036000830152612cdc81612814565b9050919050565b60006020820190508181036000830152612cfc8161287a565b9050919050565b60006020820190508181036000830152612d1c816128ba565b9050919050565b60006020820190508181036000830152612d3c81612920565b9050919050565b60006020820190508181036000830152612d5c81612986565b9050919050565b60006020820190508181036000830152612d7c816129ec565b9050919050565b6000602082019050612d986000830184612a61565b92915050565b6000604082019050612db36000830185612a61565b612dc06020830184612a61565b9392505050565b6000604051905081810181811067ffffffffffffffff82111715612dee57612ded613136565b5b8060405250919050565b600067ffffffffffffffff821115612e1357612e12613136565b5b602082029050602081019050919050565b600067ffffffffffffffff821115612e3f57612e3e613136565b5b602082029050602081019050919050565b600067ffffffffffffffff821115612e6b57612e6a613136565b5b602082029050602081019050919050565b600067ffffffffffffffff821115612e9757612e96613136565b5b601f19601f8301169050602081019050919050565b6000819050602082019050919050565b600081519050919050565b600081519050919050565b600081519050919050565b6000602082019050919050565b600082825260208201905092915050565b600082825260208201905092915050565b600082825260208201905092915050565b6000612f2882613011565b9150612f3383613011565b9250827fffffffffffffffffffffffffffffffffffffffffffffffffffffffffffffffff03821115612f6857612f676130d8565b5b828201905092915050565b6000612f7e82613011565b9150612f8983613011565b925082821015612f9c57612f9b6130d8565b5b828203905092915050565b6000612fb282612ff1565b9050919050565b60008115159050919050565b60007fffffffff0000000000000000000000000000000000000000000000000000000082169050919050565b600073ffffffffffffffffffffffffffffffffffffffff82169050919050565b6000819050919050565b82818337600083830152505050565b60005b8381101561304857808201518184015260208101905061302d565b83811115613057576000848401525b50505050565b6000600282049050600182168061307557607f821691505b6020821081141561308957613088613107565b5b50919050565b600061309a82613011565b91507fffffffffffffffffffffffffffffffffffffffffffffffffffffffffffffffff8214156130cd576130cc6130d8565b5b600182019050919050565b7f4e487b7100000000000000000000000000000000000000000000000000000000600052601160045260246000fd5b7f4e487b7100000000000000000000000000000000000000000000000000000000600052602260045260246000fd5b7f4e487b7100000000000000000000000000000000000000000000000000000000600052604160045260246000fd5b6000601f19601f8301169050919050565b60008160e01c9050919050565b600060443d101561319357613236565b60046000803e6131a4600051613176565b6308c379a081146131b55750613236565b60405160043d036004823e80513d602482011167ffffffffffffffff821117156131e157505050613236565b808201805167ffffffffffffffff811115613200575050505050613236565b8060208301013d850181111561321b57505050505050613236565b61322482613165565b60208401016040528296505050505050505b90565b61324281612fa7565b811461324d57600080fd5b50565b61325981612fb9565b811461326457600080fd5b50565b61327081612fc5565b811461327b57600080fd5b50565b6025811061328b57600080fd5b50565b61329781613011565b81146132a257600080fd5b5056fea264697066735822122039a3ce2876384a4e07278c5f0a7fdc57b8e7e91717516a9bd78bb9cf4fcd1ea564736f6c6343000800003368747470733a2f2f646d6f6e2d6170692e6865726f6b756170702e636f6d2f6974656d2f7b69647d",
  "immutableReferences": {},
  "source": "// SPDX-License-Identifier: MIT\r\npragma solidity ^0.8.0;\r\n\r\nimport \"@openzeppelin/contracts/token/ERC1155/ERC1155.sol\";\r\nimport \"@openzeppelin/contracts/access/Ownable.sol\";\r\n\r\ncontract Tops is ERC1155, Ownable {\r\n\r\n    enum TopType {\r\n        longHair,\r\n        shortHair, \r\n        eyepatch, \r\n        hat, \r\n        hijab, \r\n        turban, \r\n        bigHair, \r\n        bob, \r\n        bun, \r\n        curly, \r\n        curvy, \r\n        dreads,\r\n        frida, \r\n        fro, \r\n        froAndBand, \r\n        miaWallace,\r\n        longButNotTooLong, \r\n        shavedSides, \r\n        straight01, \r\n        straight02, \r\n        straightAndStrand, \r\n        dreads01, \r\n        dreads02, \r\n        frizzle, \r\n        shaggy, \r\n        shaggyMullet, \r\n        shortCurly, \r\n        shortFlat, \r\n        shortRound, \r\n        shortWaved, \r\n        sides, \r\n        theCaesar, \r\n        theCaesarAndSidePart, \r\n        winterHat01, \r\n        winterHat02, \r\n        winterHat03, \r\n        winterHat04\r\n    }\r\n\r\n    address public addressBookAddress;\r\n\r\n    constructor() ERC1155(\"https://dmon-api.herokuapp.com/item/{id}\"){}\r\n\r\n    function buy(TopType top, uint amount) external {\r\n        _mint(_msgSender(), uint(top), amount, \"\");\r\n    }\r\n\r\n    function buyBatch(TopType[] memory tops, uint[] memory amounts) external {\r\n        uint[] memory topIds = new uint[](tops.length);\r\n        for(uint i; i<tops.length; i++){\r\n            topIds[i] = uint(tops[i]);\r\n        }\r\n        _mintBatch(_msgSender(), topIds, amounts, \"\");\r\n    }\r\n}",
  "sourcePath": "C:/Users/Root/Documents/my_ethereum/NFT-Avatars/contracts/Tops.sol",
  "compiler": {
    "name": "solc",
    "version": "0.8.0+commit.c7dfd78e.Emscripten.clang"
  },
  "schemaVersion": "3.3.3",
  "updatedAt": "2021-05-14T10:28:25.980Z",
  "networkType": "ethereum",
  "devdoc": {
    "kind": "dev",
    "methods": {
      "balanceOf(address,uint256)": {
        "details": "See {IERC1155-balanceOf}. Requirements: - `account` cannot be the zero address."
      },
      "balanceOfBatch(address[],uint256[])": {
        "details": "See {IERC1155-balanceOfBatch}. Requirements: - `accounts` and `ids` must have the same length."
      },
      "isApprovedForAll(address,address)": {
        "details": "See {IERC1155-isApprovedForAll}."
      },
      "owner()": {
        "details": "Returns the address of the current owner."
      },
      "renounceOwnership()": {
        "details": "Leaves the contract without owner. It will not be possible to call `onlyOwner` functions anymore. Can only be called by the current owner. NOTE: Renouncing ownership will leave the contract without an owner, thereby removing any functionality that is only available to the owner."
      },
      "safeBatchTransferFrom(address,address,uint256[],uint256[],bytes)": {
        "details": "See {IERC1155-safeBatchTransferFrom}."
      },
      "safeTransferFrom(address,address,uint256,uint256,bytes)": {
        "details": "See {IERC1155-safeTransferFrom}."
      },
      "setApprovalForAll(address,bool)": {
        "details": "See {IERC1155-setApprovalForAll}."
      },
      "supportsInterface(bytes4)": {
        "details": "See {IERC165-supportsInterface}."
      },
      "transferOwnership(address)": {
        "details": "Transfers ownership of the contract to a new account (`newOwner`). Can only be called by the current owner."
      },
      "uri(uint256)": {
        "details": "See {IERC1155MetadataURI-uri}. This implementation returns the same URI for *all* token types. It relies on the token type ID substitution mechanism https://eips.ethereum.org/EIPS/eip-1155#metadata[defined in the EIP]. Clients calling this function must replace the `\\{id\\}` substring with the actual token type ID."
      }
    },
    "version": 1
  },
  "userdoc": {
    "kind": "user",
    "methods": {},
    "version": 1
  }
}